:020000040000fa
:080000000002040000000000f2
:020000040000fa
:100008007403000052030000560300005c03000064
:100018006003000074030000740300007403000010
:1000280074030000740300007403000074030000ec
:1000380074030000740300007403000074030000dc
:100048009e020000740300007403000074030000a3
:1000580074030000740300007403000074030000bc
:1000680074030000740300007403000074030000ac
:10007800740300007403000074030000740300009c
:10008800740300007403000074030000740300008c
:100098007403000074030000dc0200000803000081
:1000a800740300007403000074030000740300006c
:1000b800740300007403000074030000740300005c
:1000c800740300007403000074030000740300004c
:1000d800740300007403000074030000740300003c
:1000e800740300007403000074030000740300002c
:1000f800740300007403000074030000740300001c
:10010800740300007403000074030000740300000b
:1001180074030000740300007403000074030000fb
:1001280074030000740300007403000074030000eb
:1001380074030000740300007403000074030000db
:1001480074030000740300007403000074030000cb
:1001580074030000740300007403000074030000bb
:1001680074030000740300007403000074030000ab
:10017800740300007403000074030000740300009b
:10018800740300007403000074030000740300008b
:10019800740300007403000074030000740300007b
:1001a800740300007403000074030000740300006b
:1001b800740300007403000074030000740300005b
:1001c800740300007403000074030000740300004b
:1001d800740300007403000074030000740300003b
:1001e800740300007403000074030000740300002b
:0801f800740300007403000011
:020000040000fa
:100208007403000064030000680300006c0300002e
:1002180070030000740300007403000074030000fe
:1002280074030000740300007403000074030000ea
:1002380074030000740300007403000074030000da
:100248009e020000740300007403000074030000a1
:1002580074030000740300007403000074030000ba
:1002680074030000740300007403000074030000aa
:10027800740300007403000074030000740300009a
:10028800740300007403000074030000740300008a
:100298007403000074030000dc020000080300007f
:1002a800740300007403000074030000740300006a
:1002b800740300007403000074030000740300005a
:1002c800740300007403000074030000740300004a
:1002d800740300007403000074030000740300003a
:1002e800740300007403000074030000740300002a
:1002f800740300007403000074030000740300001a
:100308007403000074030000740300007403000009
:1003180074030000740300007403000074030000f9
:1003280074030000740300007403000074030000e9
:1003380074030000740300007403000074030000d9
:1003480074030000740300007403000074030000c9
:1003580074030000740300007403000074030000b9
:1003680074030000740300007403000074030000a9
:100378007403000074030000740300007403000099
:100388007403000074030000740300007403000089
:100398007403000074030000740300007403000079
:1003a8007403000074030000740300007403000069
:1003b8007403000074030000740300007403000059
:1003c8007403000074030000740300007403000049
:1003d8007403000074030000740300007403000039
:1003e8007403000074030000740300007403000029
:0803f80074030000740300000f
:020000040000fa
:100400006f4321000e7f22000e01880000000000d3
:10041000000020000000e000020032000001200087
:10042000200288000c00070040b2200001002000dc
:1004300011000700000020000000e0000200320070
:100440000000020000000000620b0200000000003b
:100450000040da000000fe004440a900a001200096
:100460000000e0000300320000002000a00188002e
:100470004440a80000000600910188008000780038
:100480000000eb0015003700e280400032a0b4000d
:100490009101ba00e280400032a0b4009102ba009b
:1004a000e280400032a0b4000002eb00472bde00e7
:1004b000f507b200602ce10004003a000059eb009f
:1004c0008301e900fdff3e00040037006128e100e0
:1004d000010032000082eb00040007001101ba00a5
:1004e0000200e000e8ff3a00000006003159ba00bf
:1004f0008301e9000c0032002159ba008301e900b0
:10050000080032000400e00003003a00e2804000ee
:1005100032a0b400f5ff370011d9ba008301e90019
:10052000faff3a008100e800e180400032a0b40008
:100530000000060000000000000000003600f80087
:10054000809fbe00829fbe00849fbe00869fbe002b
:100550003400f80000002000a00188008500a900f8
:1005600094608000a560800061024200e0824a0041
:1005700094608800a560880090608000a160800081
:10058000520020000300200087000700e00f500009
:10059000e08f580001003a00c70307003400f9005b
:1005a0004f03be004f02be004f01be004f00be0011
:1005b0003600f900004006003600f800809fbe00bb
:1005c000829fbe00849fbe00869fbe003400f8005c
:1005d00000002000a001880087c0a9006500070076
:1005e00023ecb7001200200031c22000b060800070
:1005f000d20307003400f9004f03be004f02be00d3
:100600004f01be004f00be003600f900004006005a
:100610003600f800809fbe00829fbe00849fbe000f
:10062000869fbe00889fbe003400f80000002000b6
:10063000a001880087e0a900042020009511800017
:100640000502620028c220000920200008003200b4
:100650000c00370024c22000144278000482fb0002
:10066000a4118800951180000582640005003a00fd
:1006700088007800c0608000c3030700e04f50008e
:10068000f4ff3a003400f9004f04be004f03be00ef
:100690004f02be004f01be004f00be003600f90001
:1006a000004006008020a900ffff37008060a900fd
:1006b0008020ef00004006008040a900ffff3700c7
:1006c0008080a900ffff37008020a900ffff3700ce
:1006d0008060a900ffff37008040a900ffff3700be
:1006e0008080a900ffff3700ffff3700889fbe0012
:1006f00080047800a0618000e00f500004003a0000
:100700000e0007000084eb00e00f500008003500e9
:10071000a8618000e08f5400050032000900440009
:1007200006000700e00f500001003d000084eb00d0
:10073000080078004f04be0000000600e00f5000e3
:1007400004003a0064c32000a4618800000278001d
:10075000060037000082eb0065432100850f500042
:1007600002003e00a06188000002eb000400780057
:10077000000006000000fa0084118000660262009a
:10078000e60f520002003a00b41180000300370067
:10079000b5118000f40f200004826200040078008c
:1007a0000080fa0000000600020007000400be00fe
:1007b000000006006022b800060220000000d00001
:1007c0008180d2000482d2008582d2000000a00085
:1007d0000202520083825a000300310002024200ea
:1007e00083824a000000a1000603e900f3ff3a00fb
:1007f0000000060044c22000e48747002561800015
:10080000889fbe008a9fbe008c9fbe008e1f78000e
:10081000e08f52000b003a0024029800e4024200ec
:10082000846188002561880095618800a442900059
:100830000504a00025429800e44290000504a000b1
:10084000654298006704400064c320002500200032
:100850004244de00694321004244dd0084845400a8
:1008600005074400110009008504d8009c432100bd
:10087000826180000406560080bf9f000e0747007b
:100880000003eb00e40544000806460002003700c0
:10089000160020000d0178002242900061026200e3
:1008a000020032000a003700150978009202780031
:1008b0002542900061026200fbff32000802410005
:1008c000848f520002003900e00f54003f003d00c9
:1008d000920678000d00a100828f5600edff3e00c9
:1008e000e10f5300eaff3a000fba9700840f54005b
:1008f00002003600890f540010003900614ab90027
:10090000b0ff2f00010020006143b8000402500036
:1009100085825800840f5300858f5b0002003500ec
:100920000b05780006003700110009000986d80081
:100930000982b90004057800010037000e0578002f
:100940000a00780069ff0700e10f400005003a0047
:100950000b0578000b00780064ff0700e10f4000f2
:100960002b00320094618000000a780094618000be
:1009700064034200a4429000860f5000020032003f
:100980000504a000010037000504a10025429800dd
:100990006405550044c220000a0540000a0878009a
:1009a0009a618800040d7800956180000003eb00d7
:1009b000254290000404a000a44298002042900028
:1009c0000404a10024409800b2ff3700846188002d
:1009d000848f5200070036001403be008042eb00f3
:1009e0006661880077618800120a7800846180005f
:1009f0002542980022429000876180000404a000f4
:100a00000709780024419800640041000100370084
:100a10000000eb004f0778004f06be004f05be00f8
:100a20004f04be004f00b10000000600e00f500070
:100a3000080032006400500084618000840f500080
:100a40000100310080618800204290000404a10070
:100a50002440980000000600889fbe000004780033
:100a60008a9fbe0081047800e08f540005003a00a0
:100a7000e00f54003200320008007800ebff07005e
:100a800030003700e00f540004003a0009007800fd
:100a900058ff0700800478002a00370064025400e1
:100aa0009405780068fa9700610262000200320043
:100ab00008007800ddff0700090078004dff0700ff
:100ac00080047800e08f54001e003200888f5400ac
:100ad0001b00320069bd9700888555000905550047
:100ae000c2ddde0042d5de000a0178008b0f550022
:100af000010036000b0178004211dd00880078000b
:100b00000900780013000700888f54000d003100a1
:100b10004255dd000a854400880f55000900360063
:100b200008045500646180007561800042c4de00e5
:100b30004244dd0008844400048cbe0001003700fc
:100b400088047800090078004f05be004f04be00fd
:100b5000000006000002780002003700315a7800d9
:100b60000201e900e00f5100fcff3a00000006001e
:020000040000fa
:100b7000d4020000d4020000d4020000d40200001d
:100b80000404000004040000be010000a0010000f5
:100b9000aa010000b401000006010000608400000a
:040ba00085ef0000dd
:020000040000fa
:100ba40014c0200014427800f5c6b300854f5200eb
:100bb40009003e0020002000e04f520013003200e4
:100bc4000442e9000000eb00e54f52000f003e0034
:100bd400300020000d0037000000eb00f5c9b30021
:100be400854f520009003600ff42420040002000b9
:100bf400e5cf520005003600764242000000eb00cb
:100c0400e24f520001003e004000200000000600b8
:100c140001c02000914078008180fb00e4805000f6
:100c240000c020000e01070010c0b3000000060041
:100c3400881f780084608000e00f52000d003a00a5
:100c440001c02000b06080004e020700e04f500059
:100c54009000320004c02000144278006642520022
:100c6400ea4f52008b003e0014002000846088008c
:100c740088003700e10f520008003a0011c020003c
:100c8400b06080003f020700e04f50008100320056
:100c9400c3ff0700806088007e003700e20f520027
:100ca40029003a0002c02000124178000281fb00b2
:100cb4000281e90021c02000b060800046020700e4
:100cc400e04f500073003200d1ff0700e04f5000a6
:100cd40002003a00102cef006e00370008c020001c
:100ce40084c0b300044c780004c1b3006444980089
:100cf40014c0b30074449800410020000800780038
:100d0400d7000700004c98004802de00144c9800fd
:100d1400214c9800480ade00344c980082002000e0
:100d240088007800c060800003020700102cef00e8
:100d34000410200095118000050262005500320065
:100d440087e0a80053003700e30f520039003a004f
:100d540002c02000124178000281fb000281e900f8
:100d640021c02000b06080001b020700e04f50004b
:100d740048003200a6ff0700e04f500002003a008e
:100d8400102cef004300370008c02000a4c0b300bb
:100d9400044c7800184290000482fb000402e9002d
:100da40004024200a5c1200065027a00a40290005a
:100db400cf2ade0065449800a402900005f0a70045
:100dc4008502ea007544980094029000cf2ade0060
:100dd400054c98001402900004f0a7000402ea00f5
:100de400144c980061002000080078009c00070063
:100df400204c98004802de00344c9800414c980086
:100e0400480ade00544c9800a200200088007800b4
:100e1400c0608000c8010700102cef0004102000ff
:100e240095118000050262001a00320087e0a800d4
:100e340018003700e40f520015003a0002c02000e9
:100e4400124178000281fb000281e90021c02000e8
:100e5400b0608000e0010700e04f50000d00320058
:100e64006bff0700e04f500002003a00102cef0027
:100e74000800370004c0200074419000e440900052
:100e84001440900072010700102cef00010037009d
:100e9400102cef004f04780000000600889fbe006d
:100ea4008a9fbe000002be006000b800e04f5100ff
:100eb400190032008283fb000703e9008783e900fd
:100ec4000241e9000281fb00028153001a00200064
:100ed4000b002000e1036200090032000a04be0096
:100ee400860378008703e900030033000804440004
:100ef40089844c00fbff3700080070008980700073
:100f04000603e900820f5300030032008502d1007a
:100f14000482d300efff37004f05be004f04be002c
:100f240000000600889fbe008a9fbe008c9fbe0002
:100f3400810678000084eb008084eb00e08f56008b
:100f44001f003400800578000005eb008cc0b3005e
:100f54003b4078000080fb00010020000c41780039
:100f6400ceff07000080fb004800dd00cf80de00dc
:100f740000046c0081846c000c427800e00f540083
:100f8400e08f5c0007003d000804440089844c00a5
:100f940076db2100174c200006046c0087846c006b
:100fa400020037000804440089844c000442e9002c
:100fb400f2ff3a000a05e8008d0f5500e4ff3a00fd
:100fc40002c2b3000800be00b4ff07000080ea00bc
:100fd4008180ea004f06be004f05be004f04be00ec
:100fe40000000600881f7800001020008003eb003a
:100ff40081c0b30072db2100134c20000880200064
:10100400613ab900c822dd000400200001437800e1
:10101400e00f5200e08f5a0005003d000402420038
:1010240085824a0002026a0083826a000200370055
:101034000402420085824a000643e900f4ff3a00b4
:10104400423bdd0006034400048bbe008703e80036
:101054000000e900eaff3a004f04780000000600af
:10106400889fbe008a9fbe008c9fbe008e1f7800a2
:10107400010678000084eb008084eb00e00f56004a
:1010840018003400800578000005eb008dc0b30023
:101094000e8020003b4078000080fb00010020000f
:1010a4000d4178007dff0700484ade00050020005e
:1010b40000426a000482fb004222dd000402470071
:1010c400484bdd00c843de00870373004843dd005e
:1010d40034046b00a4846b000a05e8008c0f5500ef
:1010e400ecff3a0002c2b3000800be006bff070029
:1010f4000080ea008180ea004f0778004f06be00b6
:101104004f05be004f04be000000060004e82300a3
:1011140074088800440580000400a0000410a100a5
:101124000420a0004405880013e1a8008500a9005c
:101134009500a80000000600f50f2e00343680004c
:101144008482620004502000050272003436880054
:1011540004fe2f0035358000050262000430a00033
:1011640034358800c902a80074062000c411880020
:1011740031a2a90030e2a90031e2a80033e2a900bb
:1011840033a2a900f4f32f0025232000950a62005e
:101194003342a80087c0a90087e0a90097e0a8000f
:1011a40097c0a80000000600889fbe0089c12000e7
:1011b4000044eb009a000700802c7800084878006f
:1011c4000844e800e44f5400faff3a00d082a90032
:1011d400d0c2a900c902a900c122a900f40f2e009f
:1011e4009536800005036200053021008682720076
:1011f40095368800a536800005036200054021006d
:1012040086827200a5368800b53680000503620028
:101214000550210086827200b5368800c6368000eb
:10122400060262000560210084827200c5368800cf
:1012340084ff2f00851b2000950a6200e61a200017
:10124400160b6200451a2000950a6200a6192000b8
:10125400160b620024032000f40d8800a40d8800fe
:10126400540d8800040d8800f40f2000f40c88004d
:10127400440d8800940d8800e40d8800b9a1a900ec
:10128400afa1a900a5a1a9009ba1a900f5f82f0071
:10129400861b2000168b6200e61a2000168b620063
:1012a400461a2000168b6200a6192000168b6200d5
:1012b400f53f2e00861b2000168b6200e61a2000e4
:1012c400168b6200461a2000168b6200a6192000b5
:1012d400168b6200c50d80000500a1006500b300f7
:1012e400c50d8800750d80000500a1006500b300e0
:1012f400750d8800250d80000500a1006500b30070
:10130400250d8800d50c80000500a1006500b30000
:10131400d50c88006408880084e0a9008760a900cf
:1013240011e1a8004f04be00000006007900070088
:10133400b060880077000700c06088009aff07004b
:1013440072ff07007cff070040a7a900f4f32f00f9
:1013540045742000950a6200f48f2f004574200024
:10136400950a620000000600100290004f22de0081
:10137400e14f52000c003a00904278000582fb00d5
:1013840084024200865b2800e6827a00065c28001c
:1013940066427a000482fb00160020000432dd005d
:1013a400950a72000e003700e04f52000c003a001c
:1013b400904278000582fb0084024200865b28008c
:1013c400e6827a00065c280066427a000482fb000a
:1013d400160020000432dd000482ea00950a62004f
:1013e400904278000582fb0004024200455c28001c
:1013f40065027a009002900005f0a7008502ea00d9
:10140400050a7800000006000048eb000002eb002b
:101414001400980024009800310098000000060091
:10142400881f780080002000f1fc07000004780089
:10143400e00f540003003200619b20000800780094
:10144400f1ff0700080078004f0478000000060050
:10145400889fbe000082fb00140eb1008002eb00e6
:10146400e50f5200030034006902520004024200f6
:101474001500200004024200a6c1200066037a0081
:101484000284fb0014002000e0cf50000100320071
:101494000082eb0008a4b90028039800e08f5200f2
:1014a400020032000040e800e9ff07004f04be00dc
:1014b40000000600889fbe0088c12000e8044400a4
:1014c4000884e800880378001802780094029000e9
:1014d40024039000868f520003003d008502e8003b
:1014e4001502980004003700868f5200050034006e
:1014f4008502e90015029800170078003002900078
:1015040004000100890f5400edff3a004f04be00af
:1015140000000600600f2000b5fc0700e00f50003b
:10152400040032000002eb0004b8980014b89800dc
:1015340024b8980000000600e00f510010003200ab
:101544000002eb00070f20008001eb0090ba90002e
:1015540031f07a0020bb90000603e80026b898001a
:101564008502e80015b89800878f520001003a0000
:1015740013b898000402e800840f5100f3ff3e0002
:1015840000000600a0ba90000042eb00e08f520079
:101594000f00320000ba9000e0487a0020ba9000b0
:1015a4000402e90024b8980080ba90008502e8009b
:1015b40005b8980014c0b300060f2000868f5200af
:1015c40003003a000002eb0004b8980014c0b30012
:1015d4000440780000000600a0ba90000042eb002e
:1015e400828f52001500390014c0b300e00f51007f
:1015f400120032000002eb00060f20008003eb0013
:1016040080ba9000e0d87a00a0ba90008502e90080
:1016140025b8980080ba90008502e80005b89800c3
:10162400868f520001003a0007b898000402e800cf
:10163400840f5100f2ff3e0014c0b3000440780050
:04164400000006009c
:020000040000fa
:10164800000800000004000000000000220c000058
:101658000200000000000000120c0000080000005a
:10166800000000001a0c0000080000000000000044
:10167800000c00001200000000000000240c000014
:101688000800000000000000300c0000020000000c
:1016980000000000320c0000020000000000000002
:1016a8002c0c00000400000000000000340c0000b6
:0c16b80002000000000000000000000024
:020000040000fa
:1016c4000600fa0066825700c55c28000500090080
:1016d400355a780015ff070042fe0700620020001b
:1016e400e6805700b060800093ff070050fd0700bc
:0416f400feff3700be
:020000040000fa
:04aff8002f1900000d
:020000040000fa
:04affc007f3f000093
:00000001FF
