:020000040000fa
:080000000002040000000000f2
:020000040000fa
:100008004e0300002c0300003003000036030000fc
:100018003a0300004e0300004e0300004e030000a8
:100028004e0300004e0300004e0300004e03000084
:100038004e0300004e0300004e0300004e03000074
:100048009a0200004e0300004e0300004e03000019
:100058004e0300004e0300004e0300004e03000054
:100068004e0300004e0300004e0300004e03000044
:100078004e0300004e0300004e0300004e03000034
:100088004e0300004e0300004e0300004e03000024
:100098004e0300004e030000b6020000e20200001a
:1000a8004e0300004e0300004e0300004e03000004
:1000b8004e0300004e0300004e0300004e030000f4
:1000c8004e0300004e0300004e0300004e030000e4
:1000d8004e0300004e0300004e0300004e030000d4
:1000e8004e0300004e0300004e0300004e030000c4
:1000f8004e0300004e0300004e0300004e030000b4
:100108004e0300004e0300004e0300004e030000a3
:100118004e0300004e0300004e0300004e03000093
:100128004e0300004e0300004e0300004e03000083
:100138004e0300004e0300004e0300004e03000073
:100148004e0300004e0300004e0300004e03000063
:100158004e0300004e0300004e0300004e03000053
:100168004e0300004e0300004e0300004e03000043
:100178004e0300004e0300004e0300004e03000033
:100188004e0300004e0300004e0300004e03000023
:100198004e0300004e0300004e0300004e03000013
:1001a8004e0300004e0300004e0300004e03000003
:1001b8004e0300004e0300004e0300004e030000f3
:1001c8004e0300004e0300004e0300004e030000e3
:1001d8004e0300004e0300004e0300004e030000d3
:1001e8004e0300004e0300004e0300004e030000c3
:0801f8004e0300004e0300005d
:020000040000fa
:100208004e0300003e0300004203000046030000c6
:100218004a0300004e0300004e0300004e03000096
:100228004e0300004e0300004e0300004e03000082
:100238004e0300004e0300004e0300004e03000072
:100248009a0200004e0300004e0300004e03000017
:100258004e0300004e0300004e0300004e03000052
:100268004e0300004e0300004e0300004e03000042
:100278004e0300004e0300004e0300004e03000032
:100288004e0300004e0300004e0300004e03000022
:100298004e0300004e030000b6020000e202000018
:1002a8004e0300004e0300004e0300004e03000002
:1002b8004e0300004e0300004e0300004e030000f2
:1002c8004e0300004e0300004e0300004e030000e2
:1002d8004e0300004e0300004e0300004e030000d2
:1002e8004e0300004e0300004e0300004e030000c2
:1002f8004e0300004e0300004e0300004e030000b2
:100308004e0300004e0300004e0300004e030000a1
:100318004e0300004e0300004e0300004e03000091
:100328004e0300004e0300004e0300004e03000081
:100338004e0300004e0300004e0300004e03000071
:100348004e0300004e0300004e0300004e03000061
:100358004e0300004e0300004e0300004e03000051
:100368004e0300004e0300004e0300004e03000041
:100378004e0300004e0300004e0300004e03000031
:100388004e0300004e0300004e0300004e03000021
:100398004e0300004e0300004e0300004e03000011
:1003a8004e0300004e0300004e0300004e03000001
:1003b8004e0300004e0300004e0300004e030000f1
:1003c8004e0300004e0300004e0300004e030000e1
:1003d8004e0300004e0300004e0300004e030000d1
:1003e8004e0300004e0300004e0300004e030000c1
:0803f8004e0300004e0300005b
:020000040000fa
:100400006f4521000e7f22000e01880000000000d1
:10041000000020000000e000020032000001200087
:10042000200288000c000700e0d32000010020001b
:1004300011000700000020000000e0000200320070
:100440000000020000000000e406020000000000be
:100450000040da000000fe004440a9000000200037
:100460000000e0000300320000002000a00188002e
:100470004440a80000000600910188008000780038
:100480000000eb0015003700e280400032a0b4000d
:100490009101ba00e280400032a0b4009102ba009b
:1004a000e280400032a0b4000002eb00472bde00e7
:1004b000f507b200602ce10004003a000059eb009f
:1004c0008301e900fdff3e00040037006128e100e0
:1004d000010032000082eb00040007001101ba00a5
:1004e0000200e000e8ff3a00000006003159ba00bf
:1004f0008301e9000c0032002159ba008301e900b0
:10050000080032000400e00003003a00e2804000ee
:1005100032a0b400f5ff370011d9ba008301e90019
:10052000faff3a008100e800e180400032a0b40008
:1005300000000600849fbe003400f8000400200084
:10054000a40188008500a900046080001560800077
:1005500061024200e0824a00046088001560880061
:100560003400f9004f02be00004006003600f800db
:10057000809fbe00829fbe00849fbe00869fbe00fb
:100580003400f80000002000a001880087c0a90006
:100590006500070041ecb7001200200011c42000e4
:1005a00040618000d50407003400f9004f03be000d
:1005b0004f02be004f01be004f00be003600f900e2
:1005c000004006003600f800809fbe00829fbe00fb
:1005d000849fbe00869fbe00889fbe003400f80046
:1005e00000002000a001880087e0a900042020006e
:1005f000951180000502620008c420000920200037
:10060000080032000c00370004c4200014427800b7
:100610000482fb00a411880095118000058264000b
:1006200005003a008800780050618000dc04070073
:10063000e04f5000f4ff3a003400f9004f04be00d0
:100640004f03be004f02be004f01be004f00be0070
:100650003600f900004006008020a900ffff3700a7
:100660008060a9008020ef00004006008040a900c3
:10067000ffff37008080a900ffff37008020a9001e
:10068000ffff37008060a900ffff37008040a9000e
:10069000ffff37008080a900ffff3700ffff370012
:1006a000889fbe0080047800a0628000e00f5000a8
:1006b00004003a000e0007000084eb00e00f500039
:1006c00008003500a8628000e08f54000500320069
:1006d0000900440006000700e00f500001003d0043
:1006e0000084eb00080078004f04be000000060004
:1006f000e00f500004003a0064c52000a4628800a6
:1007000000027800060037000082eb0065452100fa
:10071000850f500002003e00a06288000002eb003e
:1007200004007800000006000000fa008411800038
:1007300066026200e60f520002003a00b411800027
:1007400003003700b5118000f40f2000048262001e
:10075000040078000080fa000000060044c4200075
:10076000e487470025628000889fbe008a9fbe0004
:100770008c9fbe008e1f7800e08f52000b003a0065
:1007800024029800e4024200846288002562880006
:1007900095628800a44290000504a00025429800bc
:1007a000e44290000504a000654298006704400000
:1007b00064c52000250020004244de006945210078
:1007c0004244dd0084845400050744001100090000
:1007d0008504d8009c4521008262800004065600f2
:1007e00080bf9f000e0747000003eb00e4054400b4
:1007f0000806460002003700160020000d017800b0
:100800002242900061026200020032000a003700ba
:10081000150978009202780025429000610262007a
:10082000fbff320008024100848f520002003900b1
:10083000e00f54003f003d00920678000d00a1003b
:10084000828f5600edff3e00e10f5300eaff3a00b1
:100850000fba9700840f540002003600890f54002d
:1008600010003900614ab900b0ff2f0001002000dc
:100870006143b8000402500085825800840f530081
:10088000858f5b00020035000b05780006003700fd
:10089000110009000986d8000982b9000405780012
:1008a000010037000e0578000a0078007cff070081
:1008b000e10f400005003a000b0578000b007800be
:1008c00077ff0700e10f40002b00320094628000a8
:1008d000000a78009462800064034200a442900001
:1008e000860f5000020032000504a000010037000e
:1008f0000504a100254298006405550044c4200069
:100900000a0540000a0878009a628800040d780001
:10091000956280000003eb00254290000404a000d3
:10092000a4429800204290000404a10024409800b2
:10093000b2ff370084628800848f520007003600bf
:100940001403be008042eb00666288007762880074
:10095000120a7800846280002542980022429000aa
:10096000876280000404a0000709780024419800f1
:1009700064004100010037000000eb004f077800e1
:100980004f06be004f05be004f04be004f00b10031
:1009900000000600e00f5000080032006400500024
:1009a00084628000840f5000010031008062880062
:1009b000204290000404a10024409800000006009a
:1009c000889fbe00000478008a9fbe0081047800e2
:1009d000e08f540005003a00e00f5400320032006e
:1009e00008007800ebff070030003700e00f5400ec
:1009f00004003a000900780058ff070080047800de
:100a00002a003700640254009405780068fa9700c1
:100a1000610262000200320008007800ddff07007a
:100a2000090078004dff070080047800e08f540033
:100a30001e003200888f54001b00320069bd9700f1
:100a40008885550009055500c2ddde0042d5de006f
:100a50000a0178008b0f5500010036000b01780069
:100a60004211dd00880078000900780013000700bb
:100a7000888f54000d0031004255dd000a85440086
:100a8000880f550009003600080455006462800094
:100a90007562800042c4de004244dd0008844400e8
:100aa000048cbe000100370088047800090078003b
:100ab0004f05be004f04be00000006000002780093
:100ac00002003700315a78000201e900e00f5100be
:080ad000fcff3a0000000600e3
:020000040000fa
:100ad800889fbe008a1f78000642a8000005eb0028
:100ae8000801200009002000050037000800be00aa
:100af800000407000a05e800f50f5500020032005f
:100b08000642ab00f9ff3a000662a9008620a90058
:100b180008e2a9000942a900000a200001002000fb
:100b2800f40307004f0578004f04be0000000600dc
:100b38002010880007e2a9008620a90007e2a80083
:100b480004108000e2ff070000000600889fbe0036
:100b58008a1f780006a2a900000a200001002000d0
:100b6800e40307000602a800000000000005eb00ef
:100b78000801200009002000050037000800be0019
:100b8800dc0307000a05e800f50f550002003200f3
:100b98000602ab00f9ff3a00000220000100200025
:100ba800d40307004f0578004f04be00000006007c
:100bb800889fbe008a1f78000622a8000000000057
:100bc8000005eb000801200009002000050037009f
:100bd8000800be00c70307000a05e800f50f550026
:100be800020032000622ab00f9ff3a0000022000a2
:100bf80001002000bf0307004f0578004f04be0026
:100c080000000600889fbe008a1f78000802ab001b
:100c1800feff3a008620a900101088000400240076
:100c280045108000050262001c003a000f003700e2
:100c38004510800005826400080032000001200091
:100c480001002000ab0307000804e8008a0f5400e5
:100c5800f7ff3a0010c0b3000d00370010c0b30012
:100c6800441f2000840f54000900320004002800ab
:100c7800451080000502620010c0b30004003a006d
:100c880000022000010020009a0307000040eb004a
:100c98004f0578004f04be00000006000001200048
:100ca8000100200093030700180020000900240019
:100cb8004a1f2000deff37000662a8000002eb0092
:100cc800167d2000030037000402e800860f52005a
:100cd800020032000822ab00fbff32000010800047
:100ce80000000600881f78000662a8000002eb00da
:100cf800167d2000030037000402e800860f52002a
:100d0800020032000822ab00fbff3200081080000e
:100d18000682a800000a20000100200075030700d1
:100d2800084078004f04780000000600889fbe0045
:100d38008a1f7800004478008144780002457800d2
:100d480082ff07000880fb00aeff07000980fb0058
:100d5800acff07000a80fb00aaff07005cff070042
:100d68004f0578004f04be0000000600889fbe00b3
:100d7800004478008144780074ff07000880fb0075
:100d8800a0ff07000980fb009eff0700000a200063
:100d9800010020005703070085ff07000804a00092
:100da8000880fb0097ff0700c3ff07000044780096
:100db80047ff0700084078004f04be000000060007
:100dc800889fbe001d0307007802070007e2a800fd
:100dd8004006200056ff0700d0e2a800d102a90073
:100de800d122a800d502a9008004eb00f80f20004a
:100df8001a01070000102700210020003d0307000a
:100e0800941680004722de006142620095c02000ef
:100e180095427800854f52000a003a0065608000cc
:100e28008502e80065608800f88f52000c003600e3
:100e38000443780045c02000864a7800696088002d
:100e480007003700941680004822dd004f22de009c
:100e58000443780095c02000864a780069608800bd
:100e6800941680004922de0061426200a5c020007d
:100e780095427800854f52000a003a00756080005c
:100e88008502e80075608800f88f52000c00360073
:100e98000443780055c02000864a780079608800ad
:100ea80007003700941680004622dd004f22de003e
:100eb80004437800a5c02000864a7800796088003d
:100ec80084c0200014427800e04f52000f00320026
:100ed80044c0200014427800e04f520055003a0008
:100ee80016c0b30025c42000864a780006c0b300a7
:100ef80085c02000864a780065c02000864a7800b0
:100f080075c02000864a78004a00370024c42000b3
:100f180014427800e04f520014003200d502a900b4
:100f280054c0200014427800e04f520041003200c3
:100f380044c0200014427800e04f52003d003a00bf
:100f480016c0b30065c02000864a780006c0b3000a
:100f580025c42000864a780085c02000864a78008b
:100f680075c02000864a78003200370064c020002f
:100f780014427800e04f52001300320044c02000b1
:100f880014427800e04f52002a00320054c020007a
:100f980014427800e04f52002600320016c0b30019
:100fa80075c02000864a780006c0b30065c02000de
:100fb800864a780025c42000864a780085c020002b
:100fc800864a78001b00370074c02000144278005d
:100fd800e04f52001700320044c02000144278004d
:100fe800e04f52001300320054c020001442780031
:100ff800e04f52000f003a0034c420001442780039
:10100800e04f52000b00320006c0b30025c4200098
:10101800864a780065c02000864a780075c020009e
:10102800864a780016c0b30085c02000864a78003a
:10103800d502a800f1c1b300e0cdb3004bff070013
:101048000000fb0080608800e1c1b300e0cdb30080
:1010580046ff07000000fb00906088004800dd00a4
:101068008560800005026400000272000461880047
:10107800f1c1b30040cdb3003cff07000000fb0006
:10108800a0608800e1c1b30040cdb30037ff07007e
:101098000000fb00b06088004800dd00a66080000a
:1010a80006026400000272001461880051c1b30096
:1010b800e0cdb3002dff07000000fb00c0608800f2
:1010c80041c1b300e0cdb30028ff07000000fb00da
:1010d800d06088004800dd00c5608000050264001b
:1010e800000272002461880051c1b30040cdb300f2
:1010f8001eff07000000fb00e060880041c1b3004c
:1011080040cdb30019ff07000000fb00f060880025
:101118004800dd00e66080000602640000027200fc
:101128003461880032ff3700d4c2200014427800ae
:10113800f5c6b300854f52000e003e002000200087
:1011480055c2b300854f5200120032003000200013
:101158008542e800854f52000e0032000000eb0087
:101168008542e800854f52000a003a0040002000fe
:10117800080037000000eb00f5c9b300854f5200a6
:101188000400360055ccb300854f520001003a00e8
:101198005000200000000600889fbe00c1c2200049
:1011a800914078008180fb00e4805000c0c220009c
:1011b8009d010700c5c220009542780064c3520013
:1011c8000683fb00c4c2200064417b000281fb004f
:1011d8000300200063c352000683fb0064447b00c5
:1011e8000884fb0009002000484bdd00c843de00ee
:1011f800870373004843dd000601410087814900e9
:1012080005c3e9000683fb0064437b008683fb007b
:10121800060020000201430083814b008542e9005b
:101228008582fb0064c37a00c833dd000600200015
:101238000202430083824b00040268008582680032
:101248000482720004f0a7000402ea000400e90026
:101258004f00de004f04be0000000600881f780023
:10126800e4618000e00f520010003a00c1c2200083
:1012780040618000c8010700e04f5000f7003200cd
:10128800c4c220001442780066425200ea4f52005d
:10129800f2003e0025c0b300e0c3200005487800f6
:1012a80014002000e4618800ec003700e10f5200d0
:1012b80008003a00d1c2200040618000b601070052
:1012c800e04f5000e500320097ff0700e06188001a
:1012d800e2003700e20f520034003a00e4c3200075
:1012e80014427800e1c3200091407800c2c2200077
:1012f800124178000281fb000482fb0004015100c6
:101308008180fb00c4c220008480400040618000ce
:10131800880107003e6cb400e4c320001442780042
:10132800c5c220009542780084cf5200cb003a0015
:1013380099ff0700e04f500002003a003c2cef00f4
:10134800c6003700c8c2200074c0b300044c78003f
:1013580086c02000164378002644980031002000fb
:101368000800780030010700404498004802de0079
:101378005444980061449800480ade007444980078
:101388007200200088007800506180005901070031
:101398003c2cef0004102000971180000702620027
:1013a800ae00320087e0a800ac003700e30f52001f
:1013b80039003a00e4c3200014427800e1c3200059
:1013c80091407800c2c22000124178000281fb00df
:1013d8000482fb00040151008180fb00c4c220008c
:1013e8008480400040618000520107003e6cb400d8
:1013f800e4c3200014427800c5c22000954278005a
:1014080084cf520095003a0063ff0700e04f500078
:1014180002003a003c2cef0090003700c8c22000c0
:10142800a4c0b300044c78000461800024449800f0
:101438004822de0034449800246180004444980027
:101448004822de005444980061002000080078001b
:10145800f5000700604498004802de0074449800d4
:10146800014c9800480ade00144c9800a2002000a5
:1014780088007800506180001e0107003c2cef00b6
:1014880004102000901180000002620073003200f6
:1014980087e0a80071003700e40f520039003a00d5
:1014a800e4c3200014427800e1c320009140780092
:1014b800c2c22000124178000281fb000482fb00b6
:1014c800040151008180fb00c4c2200084804000d8
:1014d80040618000170107003e6cb400e4c320009f
:1014e80014427800c5c220009542780084cf52008b
:1014f8005a003a0028ff0700e04f500002003a0067
:101508003c2cef0055003700c8c22000a4c0b3002f
:10151800044c780014618000244498004822de00be
:101528003444980034618000444498004822de0026
:10153800544498006100200008007800ba000700b1
:10154800604498004802de0074449800014c9800fa
:10155800480ade00144c9800a20020008800780099
:1015680050618000e30007003c2cef0004102000cd
:1015780095118000050262003800320087e0a8005b
:1015880036003700e50f520033003a00e4c320006c
:1015980014427800e1c3200091407800c2c22000c4
:1015a800124178000281fb000482fb000401510013
:1015b8008180fb00c4c2200084804000406180001c
:1015c800dc0007003e6cb400e4c32000144278003d
:1015d800c5c220009542780084cf52001f003a000f
:1015e800edfe0700e04f500002003a003c2cef00ef
:1015f8001a003700e4c22000144278008482fb00fd
:101608008502e900cf2ade0005437800054078000e
:1016180042ecb700e14f520007003a0084437800db
:1016280075c02000874a78000642780050c0200024
:1016380004487800060037000482fb000402ea0030
:101648004f22de000443780085c02000864a7800d7
:101658003c2cef00010037003c2cef004f047800d1
:1016680000000600889fbe008a9fbe000002be00e0
:101678006000b800e04f5100190032008283fb007f
:101688000703e9008783e9000241e9000281fb00c2
:10169800028153001a0020000b002000e1036200c1
:1016a800090032000a04be00860378008703e900b7
:1016b800030033000804440089844c00fbff370012
:1016c80008007000898070000603e900820f53004b
:1016d800030032008502d1000482d300efff3700f7
:1016e8004f05be004f04be0000000600889fbe00e4
:1016f8008a9fbe008c9fbe00810678000084eb00a4
:101708008084eb00e08f56001f00340080057800cd
:101718000005eb008cc0b3003b4078000080fb0064
:10172800010020000c417800ceff07000080fb007c
:101738004800dd00cf80de0000046c0081846c006e
:101748000c427800e00f5400e08f5c0007003d0079
:101758000804440089844c0076db2100174c2000e3
:1017680006046c0087846c000200370008044400fb
:1017780089844c000442e900f2ff3a000a05e800b7
:101788008d0f5500e4ff3a0002c2b3000800be0006
:10179800b4ff07000080ea008180ea004f06be001f
:1017a8004f05be004f04be0000000600881f7800e9
:1017b800001020008003eb0081c0b30072db210021
:1017c800134c200008802000613ab900c822dd00cf
:1017d8000400200001437800e00f5200e08f5a0017
:1017e80005003d000402420085824a0002026a00a8
:1017f80083826a00020037000402420085824a00a0
:101808000643e900f4ff3a00423bdd0006034400ca
:10181800048bbe008703e8000000e900eaff3a00f5
:101828004f04780000000600889fbe008a9fbe0013
:101838008c9fbe008e1f7800010678000084eb00a4
:101848008084eb00e00f5600180034008005780013
:101858000005eb008dc0b3000e8020003b407800ef
:101868000080fb00010020000d4178007dff07008b
:10187800484ade000500200000426a000482fb009e
:101888004222dd0004024700484bdd00c843de0069
:10189800870373004843dd0034046b00a4846b00a5
:1018a8000a05e8008c0f5500ecff3a0002c2b300ad
:1018b8000800be006bff07000080ea008180ea0094
:1018c8004f0778004f06be004f05be004f04be000c
:1018d80000000600400f20009efb0700e00f5000ac
:1018e800030032000002eb0004b8980014b8980016
:1018f80000000600e00f51000d0032000002eb006e
:10190800060f20008003eb0090ba900031f07a00b7
:101918008502e80015b89800868f520001003a0049
:1019280017b898000402e800840f5100f6ff3e0043
:101938000000060080ba900010bb90000002eb0087
:10194800868f520012003200840f510010003200be
:10195800070f20008001eb00e0d87a0080ba9000e1
:101968008502e80005b89800878f520001003a0008
:1019780003b898000402e80080ba900010bb9000f9
:10198800868f520002003200840f5100f2ff3e00a1
:10199800044078000000060012002000e5ff070060
:1019a8000000060004e8230074088800440580004d
:1019b8000400a0000410a1000420a0004405880031
:1019c80013e1a8008500a9009500a8000000060002
:1019d800c8e2a80004fe2f003635800086026200a7
:1019e8007500b30035358800d0c2a900b53680002f
:1019f800050262005400b300b43688007406200063
:101a0800c411880031a2a90030e2a90031e2a8007f
:101a180033e2a90033a2a900f4f32f002623200003
:101a2800160b62003342a80087c0a90087e0a9000e
:101a380097e0a80097c0a80000000600a5ff0700cf
:101a480040618800a3ff070050618800d5ff0700a8
:101a5800dfff070040a7a900f4f32f00457420001a
:101a6800950a6200f48f2f0045742000950a6200e1
:041a78000000060064
:020000040000fa
:101a7c00000800000004000000000000400c000002
:101a8c000200000000000000000c00002c00000010
:101a9c0000000000420c00000200000002000000e8
:101aac00010100002c0c00001400000000000000dc
:101abc00440c00000800000000000000500c000066
:101acc000200000000000000520c000002000000a8
:101adc00000000004c0c000004000000000000009e
:101aec00540c000002000000000000000000000088
:020000040000fa
:101afc00f03fb1000180b10006003500ee03090093
:101b0c0000000000403fb1000180b100fbff3d0030
:101b1c001000b000203fb00002003500008009002a
:081b2c000000000000000600ab
:020000040000fa
:04aff8002f1900000d
:020000040000fa
:04affc007f3f000093
:00000001FF
