:020000040000fa
:080000000002040000000000f2
:020000040000fa
:100008006003000030030000360300003c030000da
:10001800420300006003000060030000600300006a
:10002800600300006003000060030000600300003c
:10003800600300006003000060030000600300002c
:100048009a020000600300006003000060030000e3
:10005800600300006003000060030000600300000c
:1000680060030000600300006003000060030000fc
:1000780060030000600300006003000060030000ec
:1000880060030000600300006003000060030000dc
:100098006003000060030000ba020000e6020000ee
:1000a80060030000600300006003000060030000bc
:1000b80060030000600300006003000060030000ac
:1000c800600300006003000060030000600300009c
:1000d800600300006003000060030000600300008c
:1000e800600300006003000060030000600300007c
:1000f800600300006003000060030000600300006c
:10010800600300006003000060030000600300005b
:10011800600300006003000060030000600300004b
:10012800600300006003000060030000600300003b
:10013800600300006003000060030000600300002b
:10014800600300006003000060030000600300001b
:10015800600300006003000060030000600300000b
:1001680060030000600300006003000060030000fb
:1001780060030000600300006003000060030000eb
:1001880060030000600300006003000060030000db
:1001980060030000600300006003000060030000cb
:1001a80060030000600300006003000060030000bb
:1001b80060030000600300006003000060030000ab
:1001c800600300006003000060030000600300009b
:1001d800600300006003000060030000600300008b
:1001e800600300006003000060030000600300007b
:0801f800600300006003000039
:020000040000fa
:1002080060030000480300004e0300005403000090
:100218005a03000060030000600300006003000050
:10022800600300006003000060030000600300003a
:10023800600300006003000060030000600300002a
:100248009a020000600300006003000060030000e1
:10025800600300006003000060030000600300000a
:1002680060030000600300006003000060030000fa
:1002780060030000600300006003000060030000ea
:1002880060030000600300006003000060030000da
:100298006003000060030000ba020000e6020000ec
:1002a80060030000600300006003000060030000ba
:1002b80060030000600300006003000060030000aa
:1002c800600300006003000060030000600300009a
:1002d800600300006003000060030000600300008a
:1002e800600300006003000060030000600300007a
:1002f800600300006003000060030000600300006a
:100308006003000060030000600300006003000059
:100318006003000060030000600300006003000049
:100328006003000060030000600300006003000039
:100338006003000060030000600300006003000029
:100348006003000060030000600300006003000019
:100358006003000060030000600300006003000009
:1003680060030000600300006003000060030000f9
:1003780060030000600300006003000060030000e9
:1003880060030000600300006003000060030000d9
:1003980060030000600300006003000060030000c9
:1003a80060030000600300006003000060030000b9
:1003b80060030000600300006003000060030000a9
:1003c8006003000060030000600300006003000099
:1003d8006003000060030000600300006003000089
:1003e8006003000060030000600300006003000079
:0803f800600300006003000037
:020000040000fa
:100400008f4321000e7f22000e01880000000000b3
:10041000000020000000e000020032000001200087
:10042000200288000c00070060b8200001002000b6
:1004300011000700000020000000e0000200320070
:100440000000020000000000200a0200000000007e
:100450000040da000000fe004440a9000000200037
:100460000000e0000300320000002000a00188002e
:100470004440a80000000600910188008000780038
:100480000000eb0015003700e280400032a0b4000d
:100490009101ba00e280400032a0b4009102ba009b
:1004a000e280400032a0b4000002eb00472bde00e7
:1004b000f507b200602ce10004003a000059eb009f
:1004c0008301e900fdff3e00040037006128e100e0
:1004d000010032000082eb00040007001101ba00a5
:1004e0000200e000e8ff3a00000006003159ba00bf
:1004f0008301e9000c0032002159ba008301e900b0
:10050000080032000400e00003003a00e2804000ee
:1005100032a0b400f5ff370011d9ba008301e90019
:10052000faff3a008100e800e180400032a0b40008
:1005300000000600801f7800849fbe003400f80091
:1005400000002000a00188008500a900a4608000b0
:10055000b560800061024200e0824a00a460880029
:10056000b56088003400f9004f02be004f007800eb
:10057000004006003600f800809fbe00829fbe004b
:10058000849fbe00869fbe003400f800000020005b
:10059000a001880087c0a9006c00070023ecb70009
:1005a0001200200031c22000c06080002b04070030
:1005b0003400f9004f03be004f02be004f01be00e1
:1005c0004f00be003600f900004006003600f8007b
:1005d000809fbe00829fbe00849fbe00869fbe009b
:1005e000889fbe003400f80000002000a0018800b1
:1005f00087e0a90004202000951180000502620018
:1006000028c2200009202000080032000c0037001a
:1006100024c22000144278000482fb00a411880048
:10062000951180000582640005003a00880078007a
:10063000d060800032040700e04f5000f4ff3a0021
:100640003400f9004f04be004f03be004f02be004d
:100650004f01be004f00be003600f900004006000a
:10066000801f78008020a900ffff3700801f7800de
:100670008060a900ffff3700801f78008040a9003c
:10068000ffff3700801f78008080a900ffff370040
:10069000801f78008020a900ffff3700801f7800ae
:1006a0008060a900ffff3700801f78008040a9000c
:1006b000ffff3700801f78008080a900ffff370010
:1006c000ffff3700889fbe0080047800b061800083
:1006d000e00f500004003a000e0007000084eb0019
:1006e000e00f500008003500b8618000e08f540032
:1006f000050032000900440006000700e00f50002a
:1007000001003d000084eb00080078004f04be00ab
:1007100000000600e00f500004003a0084c32000ef
:10072000b461880000027800060037000082eb0008
:1007300085432100850f500002003e00b061880013
:100740000002eb0004007800000006000000fa0040
:100750008411800066026200e60f520002003a0037
:10076000b411800003003700b5118000f40f2000a1
:1007700004826200040078000080fa000000060095
:1007800064c22000e487470035618000889fbe0076
:100790008a9fbe008c9fbe008e1f7800e08f5200a3
:1007a0000b003a0024029800e402420074618800c1
:1007b0003561880085618800a44290000504a0008e
:1007c00025429800e44290000504a000654298008c
:1007d0006704400084c32000250020004244de005e
:1007e000894321004244dd0084845400050744000d
:1007f000110009008504d800bc432100726180000b
:100800000406560080bf9f000e0747000003eb0060
:10081000e4054400080646000200370016002000e8
:100820000d01780022429000610262000200320055
:100830000a003700150978009202780025429000de
:1008400061026200fbff320008024100848f520007
:1008500002003900e00f54003f003d00920678008e
:100860000d00a100828f5600edff3e00e10f530006
:10087000eaff3a000fba9700840f540002003600d6
:10088000890f540010003900614ab900b0ff2f00f1
:10089000010020006143b800040250008582580026
:1008a000840f5300858f5b00020035000b05780034
:1008b00006003700110009000986d8000982b90036
:1008c00004057800010037000e0578000a00780062
:1008d0007cff0700e10f400005003a000b0578009f
:1008e0000b00780077ff0700e10f40002b0032007b
:1008f00084618000000a7800846180006403420003
:10090000a4429000860f5000020032000504a000af
:10091000010037000504a100254298006405550038
:1009200064c220000a0540000a0878008a61880035
:10093000040d7800856180000003eb0025429000e3
:100940000404a000a4429800204290000404a100e6
:1009500024409800b2ff370074618800848f5200f1
:10096000070036001403be008042eb009661880049
:10097000a7618800120a78007461800025429800ff
:1009800022429000776180000404a00007097800eb
:100990002441980064004100010037000000eb0092
:1009a0004f0778004f06be004f05be004f04be0043
:1009b0004f00b10000000600e00f500008003200b8
:1009c0006400500074618000840f50000100310009
:1009d00070618800204290000404a1002440980027
:1009e00000000600889fbe00000478008a9fbe00b9
:1009f00081047800e08f540005003a00e00f5400b5
:100a00003200320008007800ebff070030003700aa
:100a1000e00f540004003a000900780058ff070076
:100a2000800478002a00370064025400940578009e
:100a300068fa970061026200020032000800780044
:100a4000ddff0700090078004dff070080047800f3
:100a5000e08f54001e003200888f54001b003200cb
:100a600069bd97008885550009055500c2ddde0087
:100a700042d5de000a0178008b0f550001003600d8
:100a80000b0178004211dd00880078000900780031
:100a900013000700888f54000d0031004255dd001f
:100aa0000a854400880f55000900360008045500e7
:100ab00094618000a561800042c4de004244dd00f4
:100ac00008844400048cbe000100370088047800cc
:100ad000090078004f05be004f04be00000006006c
:100ae0000002780002003700315a78000201e90064
:0c0af000e00f5100fcff3a00000006007f
:020000040000fa
:100afc0014c0200014427800f5c6b300854f520094
:100b0c000b003e0020002000f24f52001900320072
:100b1c0030002000f34f5200160032000000eb00b2
:100b2c00f44f520013003a0040002000110037002f
:100b3c000000eb00f5c9b300854f52000d003600e4
:100b4c0050002000f3c24200854f520009003200d1
:100b5c00600020008542e800854f520005003200fd
:100b6c000000eb008542e800854f520001003a007e
:100b7c007000200000000600889fbe0001c020000d
:100b8c00914078008180fb00e480500000c0200080
:100b9c00e901070005c020009542780064c35200ab
:100bac000683fb0004c0200064417b000281fb0033
:100bbc000300200063c352000683fb0064447b00e7
:100bcc000884fb0009002000484bdd00c843de0010
:100bdc00870373004843dd0006014100878149000b
:100bec0005c3e9000683fb0064437b008683fb009e
:100bfc00060020000201430083814b008542e9007e
:100c0c008582fb0064c37a00c833dd000600200037
:100c1c000202430083824b00040268008582680054
:100c2c00050078000400700000f0a7000000ea0046
:100c3c000000e9004f00de004f04be00000006007b
:100c4c00881f780084608000e00f520011003a0089
:100c5c0001c02000c0608000a6020700e04f5000d9
:100c6c003c01320004c0200014427800664252005d
:100c7c00ea4f520037013e0024c0b3000002fd00d1
:100c8c0012ecb7000002fd00140020008460880004
:100c9c0030013700e10f520008003a0011c020006b
:100cac00c060800093020700e04f50002901320021
:100cbc008fff07008060880026013700e20f52008a
:100ccc0042003a0024c120001442780021c12000c7
:100cdc009140780002c02000124178000281fb0094
:100cec000482fb00040151008180fb0004c0200041
:100cfc0084804000c060800065020700126cb40064
:100d0c0024c120001442780005c0200095427800d0
:100d1c0084cf52000f013a0097ff0700e04f5000bc
:100d2c0002003a00102cef000a01370008c0200026
:100d3c0074c0b300044c78001eccbf002044980053
:100d4c0031002000080078007b010700f50f20001f
:100d5c004802dd00180390000503630006027200d0
:100d6c00140498004803de00a803900004f02f0040
:100d7c008483630086837300480bdd0085826300e7
:100d8c00050373008602780025049800c80ade006b
:100d9c0038039000040263000502720034049800ca
:100dac007200200088007800d060800028020700c4
:100dbc00102cef0004102000951180000502620039
:100dcc00e400320087e0a800e2003700e30f520095
:100ddc0032003a0024c120001442780021c12000c6
:100dec009140780002c02000124178000281fb0083
:100dfc000482fb00040151008180fb0004c0200030
:100e0c0084804000c060800021020700126cb40096
:100e1c0024c120001442780005c0200095427800bf
:100e2c0084cf5200cb003a0053ff0700e04f500034
:100e3c0002003a00102cef00c600370008c020005a
:100e4c0084c0b300044c78001fccbf002044980031
:100e5c0004c2200014427800344498004100200061
:100e6c000800780034010700200498003104980031
:100e7c008200200088007800d0608000f401070018
:100e8c00102cef0004102000951180000502620068
:100e9c00b000320087e0a800ae003700e40f52002b
:100eac0042003a0024c120001442780021c12000e5
:100ebc009140780002c02000124178000281fb00b2
:100ecc000482fb00040151008180fb0004c020005f
:100edc0084804000c0608000ed010700126cb400fb
:100eec0024c120001442780005c0200095427800ef
:100efc0084cf520097003a001fff0700e04f5000cc
:100f0c0002003a00102cef009200370008c02000bd
:100f1c0074c0b300044c780021ccbf00204498006e
:100f2c00310020000800780003010700f50f2000b5
:100f3c004802dd00180390000503630006027200ee
:100f4c00140498004803de00a803900004f02f005e
:100f5c008483630086837300480bdd008582630005
:100f6c00050373008602780025049800c80ade0089
:100f7c0038039000040263000502720034049800e8
:100f8c007200200088007800d0608000b00107005b
:100f9c00102cef0004102000951180000502620057
:100fac006c00320087e0a8006a003700e50f5200a1
:100fbc0024003a0024c120001442780021c12000f2
:100fcc009140780002c02000124178000281fb00a1
:100fdc000482fb00040151008180fb0004c020004e
:100fec0084804000c0608000a9010700126cb4002e
:100ffc0024c120001442780005c0200095427800de
:10100c0084cf520053003a00dbfe0700e04f500043
:10101c0002003a00102cef004e00370024c02000d4
:10102c00144278000482fb000402ea004f22de0026
:10103c000002fd0024ecb7000002fd00102cef00b4
:10104c0044003700e60f520021003a0024c1200072
:10105c001442780021c120009140780002c0200089
:10106c00124178000281fb000482fb000401510054
:10107c008180fb0004c0200084804000c0608000a0
:10108c0083010700126cb40024c1200014427800c4
:10109c0005c020009542780084cf52002d003a0004
:1010ac00b5fe0700e04f500002003a00102cef0094
:1010bc002800370004c02000244090001cecb7002e
:1010cc00344090001decb700102cef0021003700cd
:1010dc00e70f52001e003a0024c120001442780091
:1010ec0021c120009140780002c0200012417800fc
:1010fc000281fb000482fb00040151008180fb0093
:10110c0004c0200084804000c060800060010700a3
:10111c00126cb40024c120001442780005c02000d9
:10112c009542780084cf52000a003a0092fe0700e4
:10113c00e04f500002003a00102cef000500370081
:10114c0002ccbf0025ecb700102cef0001003700db
:10115c00102cef004f04780000000600889fbe00a2
:10116c008a9fbe000002be006000b800e04f510034
:10117c00190032008283fb000703e9008783e90032
:10118c000241e9000281fb00028153001a00200099
:10119c000b002000e1036200090032000a04be00cb
:1011ac00860378008703e900030033000804440039
:1011bc0089844c00fbff37000800700089807000a8
:1011cc000603e900820f5300030032008502d100b0
:1011dc000482d300efff37004f05be004f04be0062
:1011ec0000000600e4874700889fbe008a9fbe006f
:1011fc008c9fbe008e1f780081bf9f000084eb0087
:10120c008084eb0001027800e00f520020003400d3
:10121c00000778008005eb008ac0b3007cdb21005e
:10122c001d4c20003e4078000080fb000100200097
:10123c000a417800c9ff07000080fb004800dd0070
:10124c00cf80de0000046c0081846c000a427800c0
:10125c00e00f5400e08f5c0005003d0008044400e2
:10126c0089844c000c046c008d846c0002003700e7
:10127c000804440089844c000442e900f4ff3a005d
:10128c008b05e8000fba9700848f5500e5ff3a00f4
:10129c0002c2b3000800be00b0ff07000080ea00e5
:1012ac008180ea004f0778004f06be004f05be0054
:1012bc004f04be004f00b10000000600881f7800ec
:1012cc00001020008003eb0081c0b30072db210012
:1012dc00134c200008802000613ab900c822dd00c0
:1012ec000400200001437800e00f5200e08f5a0008
:1012fc0005003d000402420085824a0002026a0099
:10130c0083826a00020037000402420085824a0090
:10131c000643e900f4ff3a00423bdd0006034400bb
:10132c00048bbe008703e8000000e900eaff3a00e6
:10133c004f04780000000600889fbe008a9fbe0004
:10134c008c9fbe008e1f7800810678000084eb0015
:10135c008084eb00e08f5600180034000006780003
:10136c000005eb008bc0b3000e8020003c407800e1
:10137c000080fb00010020000b41780077ff070084
:10138c00484ade000500200000426a000482fb008f
:10139c004222dd0004024700484bdd00c843de005a
:1013ac00870373004843dd0034046b00a4846b0096
:1013bc000a05e8008d0f5500ecff3a0002c2b3009d
:1013cc000800be0065ff07000080ea008180ea008b
:1013dc004f0778004f06be004f05be004f04be00fd
:1013ec000000060084ff2f00851b2000950a620078
:1013fc00f4032000f40d8800f43f2e00851b200020
:10140c00950a6200c40d80000400a1006400b300c2
:10141c00c40d88007438210064088800840880009a
:10142c000440a1000450a0008408880011e1a80029
:10143c0000000600889fbe008a9fbe008c1f7800ab
:10144c00c862a900c842a900d042a900d022a900b4
:10145c00d002a900f50f2e001436800084826200a1
:10146c000460210005027200143688006200070037
:10147c0092ff0700dbff07008044eb00f8c2b300cb
:10148c000a2121006b1121001c2f2100ecfd07000b
:10149c0044c2200014427800e04f52000700320092
:1014ac00d422a900d402a80014c0b3000002fd008d
:1014bc001eecb7000002fd0005003700d422a80086
:1014cc00d402a9008004fd001eecb7008004fd00ce
:1014dc00c4c1200014427800ef4f420008003a00cb
:1014ec00d4c1200014427800884f5200080032000a
:1014fc008004fd001fecb7008004fd0009003700dc
:10150c00d4c1200014427800884f520005003200ec
:10151c0014c0b3000002fd001fecb70020ecb700b4
:10152c000002fd00fa0d880000802400811e2000be
:10153c008a000700fb0d880000802400811e20001b
:10154c0086000700fc0d880000802400811e20000e
:10155c0082000700cdff370004e8230074088800e0
:10156c00440580000400a0000410a1000420a00089
:10157c004405880013e1a8008500a9009500a80087
:10158c0000000600f50f2e00b43680008482620045
:10159c000450200005027200b4368800d0e2a90085
:1015ac0004fe2f0035358000050262006401b30093
:1015bc0034358800d0c2a80074062000c4118800fd
:1015cc0031a2a90030e2a90031e2a80033e2a9005f
:1015dc0033a2a900f4f32f0025232000950a620002
:1015ec003342a80087c0a90087e0a90097e0a800b3
:1015fc0097c0a800000006000d000700c06088001e
:10160c000b000700d0608800d3ff0700ddff070048
:10161c0040a7a900f4f32f0045742000950a62003e
:10162c00f48f2f0045742000950a6200000006001c
:10163c00400f20004ffc0700e00f50000300320069
:10164c000002eb0004b8980014b8980000000600e3
:10165c00e00f51000d0032000002eb00060f2000dd
:10166c008003eb0090ba900031f07a008502e8001c
:10167c0015b89800868f520001003a0017b89800f0
:10168c000402e800840f5100f6ff3e000000060043
:10169c0080ba900010bb90000002eb00868f5200c5
:1016ac0012003200840f510010003200070f20008e
:1016bc008001eb00e0d87a0080ba90008502e80047
:1016cc0005b89800878f520001003a0003b89800c3
:1016dc000402e80080ba900010bb9000868f520084
:1016ec0002003200840f5100f2ff3e0004407800eb
:1016fc000000060012002000e5ff070000000600b5
:020000040000fa
:10170c00220c00000200000000000000140c00007d
:10171c000e00000000000000240c0000020000007d
:10172c000200000001ff0000000c0000140000008b
:10173c000000000000080000000400000000000091
:10174c00260c00001000000000000000360c000009
:0c175c000200000000000000000000007f
:020000040000fa
:10176800f03fb1000180b10006003500ee0309002a
:1017780000000000403fb1000180b100fbff3d00c8
:101788001000b000203fb0000200350000800900c2
:08179800000000000000060043
:020000040000fa
:0417a000000006003f
:020000040000fa
:04aff8002f1900000d
:020000040000fa
:04affc007f3f000093
:00000001FF
