:020000040000fa
:080000000002040000000000f2
:020000040000fa
:10000800860300005203000058030000620300004a
:1000180068030000860300008603000086030000d2
:1000280086030000860300008603000086030000a4
:100038008603000086030000860300008603000094
:100048009e0200008603000086030000860300006d
:100058008603000086030000860300008603000074
:100068008603000086030000860300008603000064
:100078008603000086030000860300008603000054
:100088008603000086030000860300008603000044
:100098008603000086030000dc020000080300005d
:1000a8008603000086030000860300008603000024
:1000b8008603000086030000860300008603000014
:1000c8008603000086030000860300008603000004
:1000d80086030000860300008603000086030000f4
:1000e80086030000860300008603000086030000e4
:1000f80086030000860300008603000086030000d4
:1001080086030000860300008603000086030000c3
:1001180086030000860300008603000086030000b3
:1001280086030000860300008603000086030000a3
:100138008603000086030000860300008603000093
:100148008603000086030000860300008603000083
:100158008603000086030000860300008603000073
:100168008603000086030000860300008603000063
:100178008603000086030000860300008603000053
:100188008603000086030000860300008603000043
:100198008603000086030000860300008603000033
:1001a8008603000086030000860300008603000023
:1001b8008603000086030000860300008603000013
:1001c8008603000086030000860300008603000003
:1001d80086030000860300008603000086030000f3
:1001e80086030000860300008603000086030000e3
:0801f8008603000086030000ed
:020000040000fa
:10020800860300006e030000740300007a030000f8
:1002180080030000860300008603000086030000b8
:1002280086030000860300008603000086030000a2
:100238008603000086030000860300008603000092
:100248009e0200008603000086030000860300006b
:100258008603000086030000860300008603000072
:100268008603000086030000860300008603000062
:100278008603000086030000860300008603000052
:100288008603000086030000860300008603000042
:100298008603000086030000dc020000080300005b
:1002a8008603000086030000860300008603000022
:1002b8008603000086030000860300008603000012
:1002c8008603000086030000860300008603000002
:1002d80086030000860300008603000086030000f2
:1002e80086030000860300008603000086030000e2
:1002f80086030000860300008603000086030000d2
:1003080086030000860300008603000086030000c1
:1003180086030000860300008603000086030000b1
:1003280086030000860300008603000086030000a1
:100338008603000086030000860300008603000091
:100348008603000086030000860300008603000081
:100358008603000086030000860300008603000071
:100368008603000086030000860300008603000061
:100378008603000086030000860300008603000051
:100388008603000086030000860300008603000041
:100398008603000086030000860300008603000031
:1003a8008603000086030000860300008603000021
:1003b8008603000086030000860300008603000011
:1003c8008603000086030000860300008603000001
:1003d80086030000860300008603000086030000f1
:1003e80086030000860300008603000086030000e1
:0803f8008603000086030000eb
:020000040000fa
:100400008f4321000e7f22000e01880000000000b3
:10041000000020000000e000020032000001200087
:10042000200288000c000700c0bd20000100200051
:1004300011000700000020000000e0000200320070
:100440000000020000000000080c02000000000094
:100450000040da000000fe004440a90040012000f6
:100460000000e0000300320000002000a00188002e
:100470004440a80000000600910188008000780038
:100480000000eb0015003700e280400032a0b4000d
:100490009101ba00e280400032a0b4009102ba009b
:1004a000e280400032a0b4000002eb00472bde00e7
:1004b000f507b200602ce10004003a000059eb009f
:1004c0008301e900fdff3e00040037006128e100e0
:1004d000010032000082eb00040007001101ba00a5
:1004e0000200e000e8ff3a00000006003159ba00bf
:1004f0008301e9000c0032002159ba008301e900b0
:10050000080032000400e00003003a00e2804000ee
:1005100032a0b400f5ff370011d9ba008301e90019
:10052000faff3a008100e800e180400032a0b40008
:100530000000060000000000000000003600f80087
:10054000809fbe00829fbe00849fbe00869fbe002b
:100550003400f80000002000a00188008500a900f8
:10056000a4608000b560800061024200e0824a0021
:10057000a4608800b5608800a0608000b160800041
:10058000520020000300200090000700e00f500000
:10059000e08f580001003a003b0407003400f900e6
:1005a0004f03be004f02be004f01be004f00be0011
:1005b0003600f900004006003600f800809fbe00bb
:1005c000829fbe00849fbe00869fbe003400f8005c
:1005d00000002000a001880087c0a9006e0007006d
:1005e00025ecb7001200200051c22000c06080003e
:1005f000450407003400f9004f03be004f02be005f
:100600004f01be004f00be003600f900004006005a
:100610003600f800809fbe00829fbe00849fbe000f
:10062000869fbe00889fbe003400f80000002000b6
:10063000a001880087e0a900042020009511800017
:100640000502620048c22000092020000800320094
:100650000c00370044c22000144278000482fb00e2
:10066000a4118800951180000582640005003a00fd
:1006700088007800d06080004c040700e04f5000f4
:10068000f4ff3a003400f9004f04be004f03be00ef
:100690004f02be004f01be004f00be003600f90001
:1006a00000400600801f78008020a900ffff37006f
:1006b000801f78008060a9008020ef004f00780044
:1006c00000400600801f78008040a900ffff37002f
:1006d000801f78008080a900ffff3700801f78000e
:1006e0008020a900ffff3700801f78008060a900ec
:1006f000ffff3700801f78008040a900ffff370010
:10070000801f78008080a900ffff3700ffff3700bf
:10071000889fbe0080047800b0618000e00f500028
:1007200004003a000e0007000084eb00e00f5000c8
:1007300008003500b8618000e08f540005003200e9
:100740000900440006000700e00f500001003d00d2
:100750000084eb00080078004f04be000000060093
:10076000e00f500004003a0084c32000b461880008
:1007700000027800060037000082eb00854321006c
:10078000850f500002003e00b06188000002eb00bf
:1007900004007800000006000000fa0084118000c8
:1007a00066026200e60f520002003a00b4118000b7
:1007b00003003700b5118000f40f200004826200ae
:1007c000040078000080fa00000006000200070024
:1007d0000400be00000006006022b80006022000ef
:1007e0000000d0008180d2000482d2008582d20035
:1007f0000000a0000202520083825a000300310070
:100800000202420083824a000000a1000603e900c0
:10081000f3ff3a000000060064c22000e4874700ae
:1008200035618000889fbe008a9fbe008c9fbe00fd
:100830008e1f7800e08f52000b003a0024029800cf
:10084000e402420074618800356188008561880097
:10085000a44290000504a00025429800e4429000c4
:100860000504a000654298006704400084c320008e
:10087000250020004244de00894321004244dd007f
:100880008484540005074400110009008504d80041
:10089000bc432100726180000406560080bf9f00a7
:1008a0000e0747000003eb00e4054400080646007d
:1008b00002003700160020000d017800224290004f
:1008c00061026200020032000a0037001509780058
:1008d000920278002542900061026200fbff320024
:1008e00008024100848f520002003900e00f5400da
:1008f0003f003d00920678000d00a100828f560057
:10090000edff3e00e10f5300eaff3a000fba9700f7
:10091000840f540002003600890f54001000390083
:10092000614ab900b0ff2f00010020006143b80008
:100930000402500085825800840f5300858f5b00ad
:10094000020035000b057800060037001100090091
:100950000986d8000982b900040578000100370033
:100960000e0578000a00780069ff0700e10f4000db
:1009700005003a000b0578000b00780064ff0700c3
:10098000e10f40002b00320084618000000a7800f3
:100990008461800064034200a4429000860f5000ee
:1009a000020032000504a000010037000504a10088
:1009b000254298006405550064c220000a054000e5
:1009c0000a0878008a618800040d7800856180003b
:1009d0000003eb00254290000404a000a44298000c
:1009e000204290000404a10024409800b2ff370088
:1009f00074618800848f5200070036001403be0023
:100a00008042eb0096618800a7618800120a780096
:100a10007461800025429800224290007761800036
:100a20000404a000070978002441980064004100f4
:100a3000010037000000eb004f0778004f06be00b2
:100a40004f05be004f04be004f00b100000006007d
:100a5000e00f500008003200640050007461800014
:100a6000840f500001003100706188002042900026
:100a70000404a1002440980000000600889fbe00e6
:100a8000000478008a9fbe0081047800e08f540043
:100a900005003a00e00f54003200320008007800f0
:100aa000ebff070030003700e00f540004003a006d
:100ab0000900780058ff0700800478002a003700fa
:100ac000640254009405780068fa9700610262009d
:100ad0000200320008007800ddff070009007800fe
:100ae0004dff070080047800e08f54001e003200a4
:100af000888f54001b00320069bd9700888555001f
:100b000009055500c2ddde0042d5de000a0178008d
:100b10008b0f5500010036000b0178004211dd00fb
:100b2000880078000900780013000700888f5400bf
:100b30000d0031004255dd000a854400880f550044
:100b4000090036000804550094618000a56180000a
:100b500042c4de004244dd0008844400048cbe0030
:100b60000100370088047800090078004f05be00b6
:100b70004f04be00000006000002780002003700ab
:100b8000315a78000201e900e00f5100fcff3a0001
:040b9000000006005b
:020000040000fa
:100b9400cc020000d4020000d4020000c402000011
:100ba4000200000004090000a0010000be010000d2
:080bb400aa010000b4010000d9
:020000040000fa
:100bbc0014c0200014427800f5c6b300854f5200d3
:100bcc0009003e0020002000e04f52000e003200d1
:100bdc000442e9000000eb00e74f52000a003e001f
:100bec0030002000080037000000eb00f5c9b3000e
:100bfc00854f520004003600f445b000e74f520018
:100c0c0001003e004000200000000600889fbe004e
:100c1c0001c02000914078008180fb00e4805000ee
:100c2c0000c020001702070005c020009542780084
:100c3c0064c352000683fb0004c0200064417b00a7
:100c4c000281fb000300200063c352000683fb00fb
:100c5c0064447b000884fb0009002000484bdd0045
:100c6c00c843de00870373004843dd0006014100e2
:100c7c008781490005c3e9000683fb0064437b00c0
:100c8c008683fb00060020000201430083814b0099
:100c9c008542e9008582fb0064c37a00c833dd001d
:100cac00060020000202430083824b00040268000d
:100cbc0085826800050078000400700000f0a70031
:100ccc000000ea000000e9004f00de004f04be0007
:100cdc0000000600881f780084608000e00f52003e
:100cec0011003a0001c02000c0608000ac02070077
:100cfc00e04f5000c700320004c0200014427800be
:100d0c0066425200ea4f5200c2003e0024c0b300bb
:100d1c000002fd0012ecb7000002fd0014002000e0
:100d2c0084608800bb003700e10f520008003a00d5
:100d3c0011c02000c060800099020700e04f5000f5
:100d4c00b40032009aff070080608800b1003700c1
:100d5c00e20f520035003a0024c120001442780002
:100d6c0021c120009140780002c02000124178007f
:100d7c000281fb000482fb00040151008180fb0016
:100d8c0004c0200084804000c06080006b0207001b
:100d9c00126cb40024c120001442780005c020005d
:100dac009542780084cf52009a003a0097ff0700d2
:100dbc00e04f500002003a00102cef009500370075
:100dcc0008c0200084c0b300044c780004c1b300f8
:100ddc002444980014c0b30034449800410020000f
:100dec0008007800a7010700404498004802de0084
:100dfc005444980061449800480ade0074449800fa
:100e0c008200200088007800d06080003b02070040
:100e1c00102cef00041020009511800005026200d8
:100e2c007c00320087e0a8007a003700e30f520004
:100e3c0049003a0024c120001442780021c120004e
:100e4c009140780002c02000124178000281fb0022
:100e5c000482fb00040151008180fb0004c02000cf
:100e6c0084804000c060800034020700126cb40023
:100e7c0024c120001442780005c02000954278005f
:100e8c0084cf520063003a0060ff0700e04f50002f
:100e9c0002003a00102cef005e00370008c0200062
:100eac00c4c0b300044c7800184290000482fb00cc
:100ebc000402e90004024200c5c1200065027a0068
:100ecc00a4029000cf2ade002544980094029000e2
:100edc00cf2ade0035449800a402900005f0a7004c
:100eec008502ea00454498001402900004f0a70023
:100efc000402ea005444980024c0b30064449800ef
:100f0c000042eb0074449800810020000800780037
:100f1c005c010700004c98004802de00144c98005d
:100f2c00214c9800480ade00344c9800c200200086
:100f3c0088007800d0608000f0010700102cef00d2
:100f4c00041020009511800005026200310032006f
:100f5c0087e0a8002f003700e40f52002c003a0065
:100f6c0024c120001442780021c120009140780057
:100f7c0002c02000124178000281fb000482fb00b9
:100f8c00040151008180fb0004c0200084804000db
:100f9c00c0608000e9010700126cb40024c120007d
:100fac001442780005c020009542780084cf52008e
:100fbc0018003a0015ff0700e04f500002003a00fd
:100fcc00102cef001300370004c020009442900056
:100fdc008582fb00150ab10085824200c6c1200043
:100fec00e6827a00344390000683fb00a443900011
:100ffc0014002000e0cf5300010032000082eb000f
:10100c0006a3b900a6029800102cef0001003700cf
:10101c00102cef004f0478000000060004e82300b9
:10102c0074088800440580000400a0000410a1008e
:10103c000420a0004405880013e1a8008500a90045
:10104c009500a80000000600f50f2e003436800035
:10105c00848262000450200005027200343688003d
:10106c0004fe2f0035358000050262000430a0001c
:10107c0034358800c902a80074062000c411880009
:10108c0031a2a90030e2a90031e2a80033e2a900a4
:10109c0033a2a900f4f32f0025232000950a620047
:1010ac003342a80087c0a90087e0a90097e0a800f8
:1010bc0097c0a80000000600889fbe00a9c12000b0
:1010cc000044eb0048010700802c780008487800a9
:1010dc000844e800e44f5400faff3a00c842a90063
:1010ec00d002a900d082a900c122a900c862a9001f
:1010fc00d022a900d062a900d0a2a900ce42a8009b
:10110c00d602a800d682a800c722a800ce62a800ea
:10111c00d622a800d662a800d6a2a800f40f2e00f2
:10112c0015368000050362000530210086827200ae
:10113c0015368800853680000503620005602100a5
:10114c008682720085368800a53680000503620011
:10115c000540210086827200a536880096368000f4
:10116c0006026200055021008482720095368800c8
:10117c0084ff2f00851b2000950a6200e61a2000d0
:10118c00160b6200451a2000950a6200a619200071
:10119c00160b62000002eb00f40d8800a40d880011
:1011ac00540d8800040d8800f40f2000f40c880006
:1011bc00440d8800940d8800e40d8800b9a1a900a5
:1011cc00afa1a900a5a1a9009ba1a900f5f82f002a
:1011dc00861b2000168b6200e61a2000168b62001c
:1011ec00461a2000168b6200a6192000168b62008e
:1011fc00f53f2e00861b2000168b6200e61a20009d
:10120c00168b6200461a2000168b6200a61920006d
:10121c00168b6200c50d80000500a1006500b300af
:10122c00c50d8800750d80000500a1006500b30098
:10123c00750d8800250d80000500a1006500b30028
:10124c00250d8800d50c80000500a1006500b300b9
:10125c00d50c88006408880084e0a9008760a90088
:10126c0011e1a8004f04be00000006001b0107009e
:10127c00c060880019010700d06088008eff07004d
:10128c0066ff070070ff070040a7a900f4f32f00ca
:10129c0045742000950a6200f48f2f0045742000dd
:1012ac00950a620000000600889fbe008a9fbe005f
:1012bc000002be006000b800e04f5100190032007f
:1012cc008283fb000703e9008783e9000241e90000
:1012dc000281fb00028153001a0020000b00200049
:1012ec00e1036200090032000a04be0086037800a4
:1012fc008703e900030033000804440089844c0090
:10130c00fbff370008007000898070000603e900bd
:10131c00820f5300030032008502d1000482d300f7
:10132c00efff37004f05be004f04be000000060063
:10133c00e4874700889fbe008a9fbe008c9fbe003a
:10134c008e1f780081bf9f000084eb008084eb002f
:10135c0001027800e00f52002000340000077800f2
:10136c008005eb008ac0b3007cdb21001d4c200003
:10137c003e4078000080fb00010020000a4178000c
:10138c00c9ff07000080fb004800dd00cf80de00b5
:10139c0000046c0081846c000a427800e00f540059
:1013ac00e08f5c0005003d000804440089844c007b
:1013bc000c046c008d846c0002003700080444009f
:1013cc0089844c000442e900f4ff3a008b05e800e4
:1013dc000fba9700848f5500e5ff3a0002c2b300a4
:1013ec000800be00b0ff07000080ea008180ea0020
:1013fc004f0778004f06be004f05be004f04be00dd
:10140c004f00b10000000600881f7800001020007b
:10141c008003eb0081c0b30072db2100134c200071
:10142c0008802000613ab900c822dd0004002000c9
:10143c0001437800e00f5200e08f5a0005003d0098
:10144c000402420085824a0002026a0083826a001a
:10145c00020037000402420085824a000643e9007c
:10146c00f4ff3a00423bdd0006034400048bbe004f
:10147c008703e8000000e900eaff3a004f04780017
:10148c0000000600889fbe008a9fbe008c9fbe0095
:10149c008e1f7800810678000084eb008084eb00be
:1014ac00e08f560018003400000678000005eb00b1
:1014bc008bc0b3000e8020003c4078000080fb0005
:1014cc00010020000b41780077ff0700484ade003e
:1014dc000500200000426a000482fb004222dd006d
:1014ec0004024700484bdd00c843de00870373004d
:1014fc004843dd0034046b00a4846b000a05e8004b
:10150c008d0f5500ecff3a0002c2b3000800be007c
:10151c0065ff07000080ea008180ea004f07780031
:10152c004f06be004f05be004f04be000000060073
:10153c00100290004f22de00e14f52000c003a00e6
:10154c00904278000582fb0084024200a65c2800d1
:10155c00e6827a00265d280066427a000482fb004f
:10156c00160020000432dd00950a72000e003700d0
:10157c00e04f52000c003a00904278000582fb00cc
:10158c0084024200a65c2800e6827a00265d2800d0
:10159c0066427a000482fb00160020000432dd0053
:1015ac000482ea00950a6200904278000582fb00f2
:1015bc0004024200655d280065027a0090029000ea
:1015cc0005f0a7008502ea00050a78000000060075
:1015dc000048eb000002eb00140098002400980077
:1015ec003100980000000600881f78008000200061
:1015fc0086fc070000047800e00f54000300320062
:10160c00e1a9200008007800f1ff0700080078002d
:10161c004f04780000000600889fbe000082fb008b
:10162c00140eb1008002eb00e50f520003003400f1
:10163c00690252000402420015002000040242001c
:10164c00c6c1200066037a000284fb00140020004f
:10165c00e0cf5000010032000082eb0008a4b9007a
:10166c0028039800e08f5200020032000040e8008e
:10167c00e9ff07004f04be0000000600889fbe0073
:10168c00a8c12000e80444000884e800880378001e
:10169c00180278009402900024039000868f520068
:1016ac0003003d008502e800150298000400370095
:1016bc00868f5200050034008502e900150298005f
:1016cc00170078003002900004000100890f5400cc
:1016dc00edff3a004f04be0000000600400f200052
:1016ec004afc0700e00f5000030032000002eb0040
:1016fc0004b8980014b8980000000600e00f5100e0
:10170c000d0032000002eb00060f20008003eb00fe
:10171c0090ba900031f07a008502e80015b8980074
:10172c00868f520001003a0017b898000402e800b6
:10173c00840f5100f6ff3e000000060080ba9000b6
:10174c0010bb90000002eb00868f5200120032009a
:10175c00840f510010003200070f20008001eb00b5
:10176c00e0d87a0080ba90008502e80005b89800ad
:10177c00878f520001003a0003b898000402e80079
:10178c0080ba900010bb9000868f5200020032008d
:10179c00840f5100f2ff3e00044078000000060068
:0c17ac0012002000e5ff0700000006000e
:020000040000fa
:1017b800000800000004000000000000240c0000e5
:1017c8000200000000000000140c000008000000e7
:1017d800000000001c0c00000800000000000000d1
:1017e800000c00001400000000000000260c00009f
:1017f8001000000000000000360c0000020000008d
:081808000000000000000000d8
:020000040000fa
:1018100099fe0700fffe070031fd0700feff3700bd
:020000040000fa
:04aff8002f1900000d
:020000040000fa
:04affc007f3f000093
:00000001FF
