:020000040000fa
:080000000002040000000000f2
:020000040000fa
:100008007603000054030000580300005e0300005c
:100018006203000076030000760300007603000008
:1000280076030000760300007603000076030000e4
:1000380076030000760300007603000076030000d4
:100048009a020000760300007603000076030000a1
:1000580076030000b6020000760300007603000075
:1000680076030000760300007603000076030000a4
:100078007603000076030000760300007603000094
:100088007603000076030000760300007603000084
:100098007603000076030000de0200000a03000079
:1000a8007603000076030000760300007603000064
:1000b8007603000076030000760300007603000054
:1000c8007603000076030000760300007603000044
:1000d8007603000076030000760300007603000034
:1000e8007603000076030000760300007603000024
:1000f8007603000076030000760300007603000014
:100108007603000076030000760300007603000003
:1001180076030000760300007603000076030000f3
:1001280076030000760300007603000076030000e3
:1001380076030000760300007603000076030000d3
:1001480076030000760300007603000076030000c3
:1001580076030000760300007603000076030000b3
:1001680076030000760300007603000076030000a3
:100178007603000076030000760300007603000093
:100188007603000076030000760300007603000083
:100198007603000076030000760300007603000073
:1001a8007603000076030000760300007603000063
:1001b8007603000076030000760300007603000053
:1001c8007603000076030000760300007603000043
:1001d8007603000076030000760300007603000033
:1001e8007603000076030000760300007603000023
:0801f80076030000760300000d
:020000040000fa
:1002080076030000660300006a0300006e03000026
:1002180072030000760300007603000076030000f6
:1002280076030000760300007603000076030000e2
:1002380076030000760300007603000076030000d2
:100248009a0200007603000076030000760300009f
:1002580076030000b6020000760300007603000073
:1002680076030000760300007603000076030000a2
:100278007603000076030000760300007603000092
:100288007603000076030000760300007603000082
:100298007603000076030000de0200000a03000077
:1002a8007603000076030000760300007603000062
:1002b8007603000076030000760300007603000052
:1002c8007603000076030000760300007603000042
:1002d8007603000076030000760300007603000032
:1002e8007603000076030000760300007603000022
:1002f8007603000076030000760300007603000012
:100308007603000076030000760300007603000001
:1003180076030000760300007603000076030000f1
:1003280076030000760300007603000076030000e1
:1003380076030000760300007603000076030000d1
:1003480076030000760300007603000076030000c1
:1003580076030000760300007603000076030000b1
:1003680076030000760300007603000076030000a1
:100378007603000076030000760300007603000091
:100388007603000076030000760300007603000081
:100398007603000076030000760300007603000071
:1003a8007603000076030000760300007603000061
:1003b8007603000076030000760300007603000051
:1003c8007603000076030000760300007603000041
:1003d8007603000076030000760300007603000031
:1003e8007603000076030000760300007603000021
:0803f80076030000760300000b
:020000040000fa
:100400004f4421000e7f22000e01880000000000f2
:10041000000020000000e000020032000001200087
:10042000200288000c00070060ab200001002000c3
:1004300011000700000020000000e0000200320070
:100440000000020000000000ee0a020000000000b0
:100450000040da000000fe004440a9000000200037
:100460000000e0000300320000002000a00188002e
:100470004440a80000000600910188008000780038
:100480000000eb0015003700e280400032a0b4000d
:100490009101ba00e280400032a0b4009102ba009b
:1004a000e280400032a0b4000002eb00472bde00e7
:1004b000f507b200602ce10004003a000059eb009f
:1004c0008301e900fdff3e00040037006128e100e0
:1004d000010032000082eb00040007001101ba00a5
:1004e0000200e000e8ff3a00000006003159ba00bf
:1004f0008301e9000c0032002159ba008301e900b0
:10050000080032000400e00003003a00e2804000ee
:1005100032a0b400f5ff370011d9ba008301e90019
:10052000faff3a008100e800e180400032a0b40008
:1005300000000600849fbe003400f8000400200084
:10054000a40188008500a9005461800065618000d5
:1005500061024200e0824a005461880065618800bf
:100560003400f9004f02be0000400600849fbe0028
:10057000869fbe003400f80004002000a40188001b
:1005800085a0a90007302000a760880087027800b6
:1005900004c0200072034200351a7800860f520012
:1005a000fdff3a00f2834300a76088003400f900a1
:1005b0004f03be004f02be00004006003600f800a8
:1005c000809fbe00829fbe00849fbe00869fbe00ab
:1005d0003400f80000002000a001880087c0a900b6
:1005e0006500070013ecb7001200200031c12000a5
:1005f00070618000b10307003400f9004f03be00b2
:100600004f02be004f01be004f00be003600f90091
:10061000004006003600f800809fbe00829fbe00aa
:10062000849fbe00869fbe00889fbe003400f800f5
:1006300000002000a001880087e0a900042020001d
:10064000951180000502620028c1200009202000c9
:10065000080032000c00370024c12000144278004a
:100660000482fb00a41188009511800005826400bb
:1006700005003a008800780080618000b803070018
:10068000e04f5000f4ff3a003400f9004f04be0080
:100690004f03be004f02be004f01be004f00be0020
:1006a0003600f900004006008020a900ffff370057
:1006b0008060a9008020ef00004006008040a90073
:1006c000ffff37008080a900ffff37008020a900ce
:1006d000ffff37008060a900ffff37008040a900be
:1006e000ffff37008080a900ffff3700ffff3700c2
:1006f000889fbe008004780010628000e00f5000e8
:1007000004003a000e0007000084eb00e00f5000e8
:100710000800350018628000e08f540005003200a8
:100720000900440006000700e00f500001003d00f2
:100730000084eb00080078004f04be0000000600b3
:10074000e00f500004003a0044c420001462880006
:1007500000027800060037000082eb0045442100cb
:10076000850f500002003e00106288000002eb007e
:1007700004007800000006000000fa0084118000e8
:1007800066026200e60f520002003a00b4118000d7
:1007900003003700b5118000f40f200004826200ce
:1007a000040078000080fa000000060024c3200046
:1007b000e487470095618000889fbe008a9fbe0045
:1007c0008c9fbe008e1f7800e08f52000b003a0015
:1007d00024029800e4024200f461880095618800d8
:1007e00005628800a44290000504a00025429800fc
:1007f000e44290000504a0006542980067044000b0
:1008000044c42000250020004244de004944210069
:100810004244dd00848454000507440011000900af
:100820008504d8007c442100f26180000406560053
:1008300080bf9f000e0747000003eb00e405440063
:100840000806460002003700160020000d0178005f
:100850002242900061026200020032000a0037006a
:10086000150978009202780025429000610262002a
:10087000fbff320008024100848f52000200390061
:10088000e00f54003f003d00920678000d00a100eb
:10089000828f5600edff3e00e10f5300eaff3a0061
:1008a0000fba9700840f540002003600890f5400dd
:1008b00010003900614ab900b0ff2f00010020008c
:1008c0006143b8000402500085825800840f530031
:1008d000858f5b00020035000b05780006003700ad
:1008e000110009000986d8000982b90004057800c2
:1008f000010037000e0578000a0078007cff070031
:10090000e10f400005003a000b0578000b0078006d
:1009100077ff0700e10f40002b00320004628000e7
:10092000000a78000462800064034200a442900040
:10093000860f5000020032000504a00001003700bd
:100940000504a100254298006405550024c3200039
:100950000a0540000a0878000a628800040d780041
:10096000056280000003eb00254290000404a00013
:10097000a4429800204290000404a1002440980062
:10098000b2ff3700f4618800848f52000700360000
:100990001403be008042eb00d6618800e761880046
:1009a000120a7800f46180002542980022429000eb
:1009b000f76180000404a000070978002441980032
:1009c00064004100010037000000eb004f07780091
:1009d0004f06be004f05be004f04be004f00b100e1
:1009e00000000600e00f50000800320064005000d4
:1009f000f4618000840f500001003100f061880034
:100a0000204290000404a100244098000000060049
:100a1000889fbe00000478008a9fbe008104780091
:100a2000e08f540005003a00e00f5400320032001d
:100a300008007800ebff070030003700e00f54009b
:100a400004003a000900780058ff0700800478008d
:100a50002a003700640254009405780068fa970071
:100a6000610262000200320008007800ddff07002a
:100a7000090078004dff070080047800e08f5400e3
:100a80001e003200888f54001b00320069bd9700a1
:100a90008885550009055500c2ddde0042d5de001f
:100aa0000a0178008b0f5500010036000b01780019
:100ab0004211dd008800780009007800130007006b
:100ac000888f54000d0031004255dd000a85440036
:100ad000880f55000900360008045500d4618000d5
:100ae000e561800042c4de004244dd000884440029
:100af000048cbe00010037008804780009007800eb
:100b00004f05be004f04be00000006000002780042
:100b100002003700315a78000201e900e00f51006d
:080b2000fcff3a000000060092
:020000040000fa
:100b2800814f50001300310082cf50000500310082
:100b38008180fb008180400004c020006480780030
:100b48001e003700824f5000050031000281fb0073
:100b58000201410004c0200064007900170037003a
:100b68000080fb000000400004c020006400780002
:100b78001200370082cf5000050036008180fb004c
:100b88008180400004c02000648078000b0037009a
:100b9800824f5000050031000080fb00000040003b
:100ba80004c0200064007800040037000281fb00c4
:100bb8000201410004c02000640079000000060022
:100bc80074c12000144278000000eb00f5c6b300a1
:100bd800854f52000d003e002000200085c2e9002c
:100be800854f520009003200300020008542e8009d
:100bf800854f5200050032000000eb008542e800f6
:100c0800854f520001003a00400020000000060015
:100c1800889fbe0061c12000914078008180fb0060
:100c2800e480500060c120007901070065c1200000
:100c38009542780064c352000683fb0064c120001b
:100c480064417b000281fb000300200063c3520063
:100c58000683fb0064447b000884fb000900200035
:100c6800484bdd00c843de00870373004843dd00be
:100c7800060141008781490005c3e9000683fb009e
:100c880064437b008683fb000600200002014300ca
:100c980083814b008542e9008582fb0064c37a00aa
:100ca800c833dd00060020000202430083824b00a7
:100cb80004026800858268000482720004f0a700bc
:100cc8000402ea000400e9004f00de004f04be0001
:100cd80000000600881f780034618000e00f520091
:100ce80010003a0061c12000706180001a020700fc
:100cf800e04f5000d300320064c120001442780055
:100d080066425200ea4f5200ce003e0026c0b300b1
:100d180085c22000864a78001400200034618800cb
:100d2800c8003700e10f520008003a0071c12000e6
:100d38007061800008020700e04f5000c1003200d7
:100d48009fff070030618800be003700e20f5200a5
:100d58003d003a0084c220001442780081c220007d
:100d68009140780062c12000124178000281fb00a6
:100d78000482fb00040151008180fb0064c1200053
:100d88008480400070618000da010700286cb4009c
:100d980084c220001442780065c120009542780082
:100da80084cf5200a7003a0099ff0700e04f500097
:100db80002003a00262cef00a200370068c120008c
:100dc800c4c0b300044c7800046080002444980038
:100dd8004822de003444980014608000444498009f
:100de8004822de00544498008460800064449800df
:100df8004822de0074449800810020000800780032
:100e080003010700004c98004802de00144c9800cb
:100e1800214c9800480ade00344c9800c20020009b
:100e28008800780080618000a2010700262cef006e
:100e38000410200095118000050262008100320034
:100e480087e0a8007f003700e30f52003d003a001a
:100e580084c220001442780081c2200091407800aa
:100e680062c12000124178000281fb000482fb006d
:100e7800040151008180fb0064c12000848040008f
:100e8800706180009b010700286cb40084c22000b8
:100e98001442780065c120009542780084cf520042
:100ea80068003a005aff0700e04f500002003a007d
:100eb800262cef006300370068c12000c4c0b300cf
:100ec800044c780054608000244498004822de00d6
:100ed8003444980064608000444498004822de004e
:100ee8005444980074608000644498004822de00ee
:100ef800744498008100200008007800c4000700ae
:100f0800004c98004802de00144c9800214c9800d0
:100f1800480ade00344c9800c2002000880078009f
:100f28008061800063010700262cef000410200078
:100f380096118000060262004200320087e0a80095
:100f480040003700e40f52003d003a0084c2200000
:100f58001442780081c220009140780062c12000cc
:100f6800124178000281fb000482fb000401510059
:100f78008180fb0064c12000848040007061800093
:100f88005c010700286cb40084c220001442780079
:100f980065c120009542780084cf520029003a00ac
:100fa8001bff0700e04f500002003a00262cef001c
:100fb8002400370068c12000c4c0b300044c780086
:100fc80024608000244498004822de0034449800bd
:100fd80034608000444498004822de00544498005d
:100fe80044608000644498004822de0074449800fd
:100ff800810020000800780085000700004c980058
:101008004802de00144c9800214c9800480ade0083
:10101800344c9800c200200088007800806180006d
:1010280024010700262cef000410200095118000f1
:10103800050262000300320087e0a80001003700c3
:10104800262cef004f04780000000600889fbe00a1
:101058008a9fbe000002be006000b800e04f510049
:10106800190032008283fb000703e9008783e90047
:101078000241e9000281fb00028153001a002000ae
:101088000b002000e1036200090032000a04be00e0
:10109800860378008703e90003003300080444004e
:1010a80089844c00fbff37000800700089807000bd
:1010b8000603e900820f5300030032008502d100c5
:1010c8000482d300efff37004f05be004f04be0077
:1010d80000000600889fbe008a9fbe008c9fbe004d
:1010e800810678000084eb008084eb00e08f5600d6
:1010f8001f003400800578000005eb008cc0b300a9
:101108003b4078000080fb00010020000c41780083
:10111800ceff07000080fb004800dd00cf80de0026
:1011280000046c0081846c000c427800e00f5400cd
:10113800e08f5c0007003d000804440089844c00ef
:1011480076db2100174c200006046c0087846c00b5
:10115800020037000804440089844c000442e90076
:10116800f2ff3a000a05e8008d0f5500e4ff3a0047
:1011780002c2b3000800be00b4ff07000080ea0006
:101188008180ea004f06be004f05be004f04be0036
:1011980000000600881f7800001020008003eb0084
:1011a80081c0b30072db2100134c200008802000ae
:1011b800613ab900c822dd0004002000014378002c
:1011c800e00f5200e08f5a0005003d000402420083
:1011d80085824a0002026a0083826a0002003700a0
:1011e8000402420085824a000643e900f4ff3a00ff
:1011f800423bdd0006034400048bbe008703e80081
:101208000000e900eaff3a004f04780000000600f9
:10121800889fbe008a9fbe008c9fbe008e1f7800ec
:10122800010678000084eb008084eb00e00f560094
:1012380018003400800578000005eb008dc0b3006d
:101248000e8020003b4078000080fb000100200059
:101258000d4178007dff0700484ade0005002000a8
:1012680000426a000482fb004222dd0004024700bb
:10127800484bdd00c843de00870373004843dd00a8
:1012880034046b00a4846b000a05e8008c0f550039
:10129800ecff3a0002c2b3000800be006bff070073
:1012a8000080ea008180ea004f0778004f06be0000
:1012b8004f05be004f04be00000006002c83a900a5
:1012c8003083a800c842a8002ca3a90030a3a80016
:1012d800c862a8002cc3a90030c3a800d002a80087
:1012e8002ce3a90030e3a800d022a8002d03a90010
:1012f8003103a800d042a8002d23a9003123a8005b
:10130800c9e2a8002d43a9003143a800c9c2a8001a
:101318002d63a9003163a800c9a2a8002d83a900e4
:101328003183a800d062a80021a3a900f4cf2f0020
:1013380005322000950a620004198000040eb300eb
:10134800041988002043a800f4ff21002632200059
:10135800160b62002343a80034fe2f0015198000e5
:10136800050262000450a000141988002223a90075
:101378002203a90025e3a9002519800004f0210013
:10138800050272002419880015c0b30046322000f7
:10139800054b780004fe2f0086322000160b6200f1
:1013a80028e3a90085a0a90095a0a80021e3a8002a
:1013b8002023a8000000060004e823007408880021
:1013c800440580000400a0000410a1000420a0002f
:1013d8004405880013e1a8008500a9009500a8002d
:1013e80000000600f50f2e00b436800084826200eb
:1013f8000450200005027200b4368800d0e2a9002b
:1014080004fe2f0035358000050262006401b30038
:1014180034358800d0c2a80074062000c4118800a2
:1014280031a2a90030e2a90031e2a80033e2a90004
:1014380033a2a900f4f32f0025232000950a6200a7
:101448003342a80087c0a90087e0a90097e0a80058
:1014580097c0a800000006000e0007007061880011
:101468000c0007008061880094ff0700d2ff070086
:10147800dcff070040a7a900f4f32f004574200003
:10148800950a6200f48f2f0045742000950a6200c7
:1014980000000600400f2000c2fc0700e00f5000cb
:1014a800030032000002eb0004b8980014b898005a
:1014b80000000600e00f51000d0032000002eb00b2
:1014c800060f20008003eb0090ba900031f07a00fc
:1014d8008502e80015b89800868f520001003a008e
:1014e80017b898000402e800840f5100f6ff3e0088
:1014f8000000060080ba900010bb90000002eb00cc
:10150800868f520012003200840f51001000320002
:10151800070f20008001eb00e0d87a0080ba900025
:101528008502e80005b89800878f520001003a004c
:1015380003b898000402e80080ba900010bb90003d
:10154800868f520002003200840f5100f2ff3e00e5
:10155800044078000000060012002000e5ff0700a4
:041568000000060079
:020000040000fa
:10156c00000800000004000000000000000c000057
:10157c0016000000000000002a0c0000080000000b
:10158c0000000000160c0000140000000000000019
:10159c00320c000008000000000000003e0c0000af
:1015ac000200000000000000400c000002000000df
:1015bc00000000003a0c00000400000000000000d5
:1015cc00420c0000020000000000000000000000bf
:020000040000fa
:1015dc00a0ff0700eefe0700bdfd0700feff370071
:020000040000fa
:04aff8002f1900000d
:020000040000fa
:04affc007f3f000093
:00000001FF
