:020000040000fa
:080000000002040000000000f2
:020000040000fa
:100008009c0300006c0300007203000078030000ea
:100018007e0300009c0300009c0300009c0300007a
:100028009c0300009c0300009c0300009c0300004c
:100038009c0300009c0300009c0300009c0300003c
:100048009a0200009c0300009c0300009c0300002f
:100058009c030000300300009c0300009c03000088
:100068009c0300009c0300009c0300009c0300000c
:100078009c0300009c0300009c0300009c030000fc
:100088009c0300009c0300009c0300009c030000ec
:100098009c0300009c030000ba020000e602000076
:1000a8009c0300009c0300009c0300009c030000cc
:1000b8009c0300009c0300009c0300009c030000bc
:1000c8009c0300009c0300009c0300009c030000ac
:1000d8009c0300009c0300009c0300009c0300009c
:1000e8009c0300009c0300009c0300009c0300008c
:1000f8009c0300009c0300009c0300009c0300007c
:100108009c0300009c0300009c0300009c0300006b
:100118009c0300009c0300009c0300009c0300005b
:100128009c0300009c0300009c0300009c0300004b
:100138009c0300009c0300009c0300009c0300003b
:100148009c0300009c0300009c0300009c0300002b
:100158009c0300009c0300009c0300009c0300001b
:100168009c0300009c0300009c0300009c0300000b
:100178009c0300009c0300009c0300009c030000fb
:100188009c0300009c0300009c0300009c030000eb
:100198009c0300009c0300009c0300009c030000db
:1001a8009c0300009c0300009c0300009c030000cb
:1001b8009c0300009c0300009c0300009c030000bb
:1001c8009c0300009c0300009c0300009c030000ab
:1001d8009c0300009c0300009c0300009c0300009b
:1001e8009c0300009c0300009c0300009c0300008b
:0801f8009c0300009c030000c1
:020000040000fa
:100208009c030000840300008a03000090030000a0
:10021800960300009c0300009c0300009c03000060
:100228009c0300009c0300009c0300009c0300004a
:100238009c0300009c0300009c0300009c0300003a
:100248009a0200009c0300009c0300009c0300002d
:100258009c030000300300009c0300009c03000086
:100268009c0300009c0300009c0300009c0300000a
:100278009c0300009c0300009c0300009c030000fa
:100288009c0300009c0300009c0300009c030000ea
:100298009c0300009c030000ba020000e602000074
:1002a8009c0300009c0300009c0300009c030000ca
:1002b8009c0300009c0300009c0300009c030000ba
:1002c8009c0300009c0300009c0300009c030000aa
:1002d8009c0300009c0300009c0300009c0300009a
:1002e8009c0300009c0300009c0300009c0300008a
:1002f8009c0300009c0300009c0300009c0300007a
:100308009c0300009c0300009c0300009c03000069
:100318009c0300009c0300009c0300009c03000059
:100328009c0300009c0300009c0300009c03000049
:100338009c0300009c0300009c0300009c03000039
:100348009c0300009c0300009c0300009c03000029
:100358009c0300009c0300009c0300009c03000019
:100368009c0300009c0300009c0300009c03000009
:100378009c0300009c0300009c0300009c030000f9
:100388009c0300009c0300009c0300009c030000e9
:100398009c0300009c0300009c0300009c030000d9
:1003a8009c0300009c0300009c0300009c030000c9
:1003b8009c0300009c0300009c0300009c030000b9
:1003c8009c0300009c0300009c0300009c030000a9
:1003d8009c0300009c0300009c0300009c03000099
:1003e8009c0300009c0300009c0300009c03000089
:0803f8009c0300009c030000bf
:020000040000fa
:100400004f4721000e7f22000e01880000000000ef
:10041000000020000000e000020032000001200087
:10042000200288000c000700e008210001002000e5
:1004300011000700000020000000e0000200320070
:100440000000020000000000d010020000000000c8
:100450000040da000000fe004440a900c002200075
:100460000000e0000300320000002000a00188002e
:100470004440a80000000600910188008000780038
:100480000000eb0015003700e280400032a0b4000d
:100490009101ba00e280400032a0b4009102ba009b
:1004a000e280400032a0b4000002eb00472bde00e7
:1004b000f507b200602ce10004003a000059eb009f
:1004c0008301e900fdff3e00040037006128e100e0
:1004d000010032000082eb00040007001101ba00a5
:1004e0000200e000e8ff3a00000006003159ba00bf
:1004f0008301e9000c0032002159ba008301e900b0
:10050000080032000400e00003003a00e2804000ee
:1005100032a0b400f5ff370011d9ba008301e90019
:10052000faff3a008100e800e180400032a0b40008
:1005300000000600801f7800849fbe003400f80091
:1005400000002000a00188008500a9000460800050
:100550001560800061024200e0824a000460880069
:10056000156088003400f9004f02be004f0078008b
:10057000004006003600f800809fbe00829fbe004b
:10058000849fbe00869fbe003400f800000020005b
:10059000a001880087c0a9008a0007005fecb700af
:1005a00012002000f1c5200020608000af06070087
:1005b0003400f9004f03be004f02be004f01be00e1
:1005c0004f00be003600f900004006003600f8007b
:1005d000809fbe00829fbe00849fbe00869fbe009b
:1005e000889fbe003400f80000002000a0018800b1
:1005f00087e0a90004202000951180000502620018
:10060000e8c5200009202000080032000c00370057
:10061000e4c52000144278000482fb00a411880085
:10062000951180000582640005003a00880078007a
:1006300030608000b6060700e04f5000f4ff3a003b
:100640003400f9004f04be004f03be004f02be004d
:100650004f01be004f00be003600f900004006000a
:10066000801f7800841f78003400f800000020000c
:10067000a001880085a0a9000003f800140cf9006f
:100680000203f800180cf9000403f800160cf90036
:10069000d4c5200014427800e04f5200030032001d
:1006a000cd42a8005d6cef0004003700cd42a900e8
:1006b00014c0b300040078005decb70014c0b300b0
:1006c000040078005cecb7003400f9004f027800b9
:1006d0004f00780000400600801f78008020a900ad
:1006e000ffff3700801f78008060a900ffff370000
:1006f000801f78008040a900ffff3700801f78002e
:100700008080a900ffff3700801f78008020a900ab
:10071000ffff3700801f78008060a900ffff3700cf
:10072000801f78008040a900ffff3700801f7800fd
:100730008080a900ffff3700ffff3700889fbe00c1
:100740008004780090638000e00f500004003a00bd
:100750000e0007000084eb00e00f50000800350099
:1007600098638000e08f54000500320009004400c7
:1007700006000700e00f500001003d000084eb0080
:10078000080078004f04be0000000600e00f500093
:1007900004003a0044c720009463880000027800f7
:1007a000060037000082eb0045472100850f50000e
:1007b00002003e00906388000002eb000400780015
:1007c000000006000000fa0084118000660262004a
:1007d000e60f520002003a00b41180000300370017
:1007e000b5118000f40f200004826200040078003c
:1007f0000080fa000000060003f0a200889fbe00ff
:100800008a9fbe008c1f7800d3000700da003300f7
:100810006450e1004f0032006420e10052003200d9
:1008200003826c0007003b000905d0000306d000de
:10083000820f54000c065d000200390002003200f5
:1008400089017800030678008582550004003d0088
:100850000003fd008103fd008502ea008b85420054
:10086000840f720002003b0060001000e08018005e
:100870006011b8000005eb007a28e1000a00390099
:1008800006007800c75ddd00f707b20087807500bd
:100890002d003700828171000a0178006105600037
:1008a0008180d1000080d3008502e900f9ff3b0080
:1008b000060440008784480002003b0060041400e6
:1008c000e0841c000988a300070032008a817100bf
:1008d00082817100610164008904d1000884d30021
:1008e0008b05e800170037000978a30013003a00d1
:1008f0000b00e000130034008b05e90008044400fd
:1009000089844c000a4474000978a3000d003a0061
:100910000b00e000070034008b05e90008044400e8
:1009200089844c0001003a000b0020000978a300e4
:10093000f7ff32000001eb000200370082817100f6
:100940000a017800490007000cf0a70001f0a000a0
:10095000920037006420e10002003a00838f6c00af
:10096000920033000801be000200be008b00370079
:100970000001be00630007000470a70003f0a1009f
:100980006509b100160032000d0035006828e1004d
:1009900006003500f0ff2f00f1ff27000300e00004
:1009a00013003b000100280000000500000040008b
:1009b000818048008502e900fcff3a00080037000a
:1009c000f88f420002003c008000eb0000000500b0
:1009d0008100d1000080d3008502e800fcff3a00ce
:1009e0000300e00002003b0060001000e0801800ff
:1009f000000006000001be00420007000470a700ce
:100a000003f0a10003f8a30013003a006509b10048
:100a100010003200090035006928e10002003500ad
:100a2000010028000000050000004000818048000f
:100a30008502e900fcff3a0000000600f88f420042
:100a4000050035008100d1000080d3008502e80058
:100a5000fcff3a00000006008000eb0000000500eb
:100a60004f89de00820178005300370081002000aa
:100a7000618055000b003d000b00200061fe2f003f
:100a80000100e1001d0034008281710061016400f9
:100a90008904d1000884d3000000e800faff3a007e
:100aa000710020006100640003007000020060001b
:100ab0000900320061044400e0844c000988a5006c
:100ac000050032008b05e8006808e10002003a00ea
:100ad0008904d1000884d300f20f20000258e100fd
:100ae00005003d00c75ddd00f907b2008980750093
:100af00008007800000006000bf827008b00780043
:100b000000000500c70ade00f107b200f50fb200d1
:100b100008003200e1cf4200020032000170a00064
:100b200024000500810f7000010032000408050058
:100b300044000500810f700002003a001400050017
:100b40008502e9000000400081c04800fcff3b0036
:100b50000170a000240005000004be00e9ff0700aa
:100b60000003be000405be000200be00e5ff070052
:100b7000844f7500000006000200be006450e100d2
:100b8000050036006420e100020036000968a30079
:100b900001003a000800be000160a0004f06780086
:100ba0004f05be004f04be0000000600f0ff2f00fe
:100bb000f1ff2700f9ff3700881f78000304780051
:100bc0000300e00007003d0060001000e080180016
:100bd00060011900e081190002003b0001f02d00c6
:100be000030037000400070008f0a70001f0a00090
:100bf0004f04780000000600889fbe008a9fbe0058
:100c0000008270000402710004827100260032002c
:100c10000004be000200be006011b8006b09200095
:100c2000950220000182cf000a0039000541b10081
:100c30000082cf00070039000541b1000982cf00d2
:100c4000040039000541b1000882cf0001003900dd
:100c50000541b10005425200120032000a003b007b
:100c600082817100610164008100d1000080d300a5
:100c70008984d3000884d3008b05e8000442e8008f
:100c8000f7ff3a00070037000804440089844c004d
:100c900000004800818048008b05e9000442e9001b
:100ca000f9ff3a0071ff07004f05be004f04be0078
:100cb0000000060024c62000e4874700156380007a
:100cc000889fbe008a9fbe008c9fbe008e1f78004a
:100cd000e08f52000b003a0024029800e402420028
:100ce000546388001563880065638800a4429000ff
:100cf0000504a00025429800e44290000504a000ed
:100d0000654298006704400044c720002500200089
:100d10004244de00494721004244dd0084845400ff
:100d200005074400110009008504d8007c47210014
:100d3000526380000406560080bf9f000e074700e4
:100d40000003eb00e40544000806460002003700fb
:100d5000160020000d01780022429000610262001e
:100d6000020032000a00370015097800920278006c
:100d70002542900061026200fbff32000802410040
:100d8000848f520002003900e00f54003f003d0004
:100d9000920678000d00a100828f5600edff3e0004
:100da000e10f5300eaff3a000fba9700840f540096
:100db00002003600890f540010003900614ab90062
:100dc000b0ff2f00010020006143b8000402500072
:100dd00085825800840f5300858f5b000200350028
:100de0000b05780006003700110009000986d800bd
:100df0000982b90004057800010037000e0578006b
:100e00000a0078004dfe0700e10f400005003a009f
:100e10000b0578000b00780048fe0700e10f40004a
:100e20002b00320064638000000a78006463800055
:100e300064034200a4429000860f5000020032007a
:100e40000504a000010037000504a1002542980018
:100e50006405550024c620000a0540000a087800f1
:100e60006a638800040d7800656380000003eb006e
:100e7000254290000404a000a44298002042900063
:100e80000404a10024409800b2ff37005463880096
:100e9000848f5200070036001403be008042eb002e
:100ea0007663880087638800120a780054638000a4
:100eb0002542980022429000576380000404a0005d
:100ec00007097800244198006400410001003700c0
:100ed0000000eb004f0778004f06be004f05be0034
:100ee0004f04be004f00b10000000600e00f5000ac
:100ef000080032006400500054638000840f5000ea
:100f00000100310050638800204290000404a100d9
:100f10002440980000000600889fbe00000478006e
:100f20008a9fbe0081047800e08f540005003a00db
:100f3000e00f54003200320008007800ebff070099
:100f400030003700e00f540004003a000900780038
:100f500058ff0700800478002a003700640254001c
:100f60009405780068fa970061026200020032007e
:100f700008007800ddff0700090078004dff07003a
:100f800080047800e08f54001e003200888f5400e7
:100f90001b00320069bd9700888555000905550082
:100fa000c2ddde0042d5de000a0178008b0f55005d
:100fb000010036000b0178004211dd008800780046
:100fc0000900780013000700888f54000d003100dd
:100fd0004255dd000a854400880f5500090036009f
:100fe00008045500746380008563800042c4de00fd
:100ff0004244dd0008844400048cbe000100370038
:1010000088047800090078004f05be004f04be0038
:10101000000006000002780002003700315a780014
:101020000201e900e00f5100fcff3a000000060059
:020000040000fa
:10103000050000000a00000088130000ca05000037
:10104000000000000000000055ae0000cd40000090
:10105000260100004f41000018fd00009c410000e7
:1010600048d00000d44100002a26000008420000b9
:1010700076c9000028420000eb5f00004e420000ed
:08108000d85300007e4200007d
:020000040000fa
:1010880004c620001442780095cdb3008542420082
:10109800e1cf520009003e0064c0b3000002fd0029
:1010a8001eecb7000002fd00b4c0b3000002fd0052
:1010b8001fecb7000002fd0066003700b5cdb30095
:1010c80085424200e1cf520009003e0074c0b300df
:1010d8000002fd001eecb7000002fd00c4c0b30012
:1010e8000002fd001fecb7000002fd0059003700a8
:1010f800d5cdb30085424200e1cf520009003e0041
:1011080074c0b3000002fd001eecb7000002fd0031
:10111800d4c0b3000002fd001fecb7000002fd00c0
:101128004c00370005ceb30085424200e2cf5200a2
:1011380009003e0074c0b3000002fd001eecb700b9
:101148000002fd00e4c0b3000002fd001fecb70080
:101158000002fd003f003700ff4f520009003a002f
:1011680084c0b3000002fd001eecb7000002fd00c1
:10117800f4c0b3000002fd001fecb7000002fd0040
:1011880034003700fd425200e1cf520009003e0012
:1011980084c0b3000002fd001eecb7000002fd0091
:1011a80004c1b3000002fd001fecb7000002fd00ff
:1011b80028003700fc4f520009003a0094c0b300e1
:1011c8000002fd001eecb7000002fd0014c1b300d0
:1011d8000002fd001fecb7000002fd001d003700f3
:1011e800fa425200e1cf520009003e0094c0b30019
:1011f8000002fd001eecb7000002fd0024c1b30090
:101208000002fd001fecb7000002fd0011003700ce
:10121800f94f520009003a00a4c0b3000002fd00d3
:101228001eecb7000002fd0034c1b3000002fd004f
:101238001fecb7000002fd0006003700a4c0b30091
:10124800040078001eecb70034c1b3000400780035
:101258001fecb700d0e2a900f50f2e00b4368000cd
:10126800848262000460210005027200b43688009e
:1012780084ff2f00851b2000950a6200e4c120002e
:10128800144278000482fb00f40d8800b9a1a9007b
:10129800f4f82f00851b2000950a6200f43f2e0009
:1012a800851b2000950a6200c40d80000400a1007f
:1012b8006400b300c40d8800f4c120001442780013
:1012c8000482fb006408880084e0a90011e1a800fa
:1012d80000000600d4c3200014427800f5c6b3000d
:1012e800854f52000e003e0020002000efc2520041
:1012f800854f520011003200300020008542e8007e
:10130800854f52000d0032000000eb008542e800d6
:10131800854f520009003a004000200007003700be
:101328000000eb00f5c9b300854f520003003600fa
:10133800f04f420001003a00500020000000060073
:10134800889fbe00c1c32000914078008180fb00c7
:10135800e4805000c0c320009c020700c5c32000e1
:101368009542780064c352000683fb00c4c3200082
:1013780064417b000281fb000300200063c352002c
:101388000683fb0064447b000884fb0009002000fe
:10139800484bdd00c843de00870373004843dd0087
:1013a800060141008781490005c3e9000683fb0067
:1013b80064437b008683fb00060020000201430093
:1013c80083814b008542e9008582fb0064c37a0073
:1013d800c833dd00060020000202430083824b0070
:1013e8000402680085826800050078000400700027
:1013f80000f0a7000000ea000000e9004f00de004e
:101408004f04be0000000600881f78006462800058
:10141800e00f520011003a00c1c320002060800094
:1014280039030700e04f500003013200c4c3200015
:101438001442780066425200ea4f5200fe003e0015
:1014480024c0b3000002fd004eecb7000002fd000e
:101458001400200064628800f7003700e10f520092
:1014680008003a00d1c3200020608000260307004e
:10147800e04f5000f000320096ff070060628800dd
:10148800ed003700e20f520047003a00e4c42000a4
:1014980014427800e1c4200091407800c2c32000c3
:1014a800124178000281fb000482fb000401510014
:1014b8008180fb00c4c3200084804000206080003d
:1014c800f80207004e6cb400e4c42000144278000f
:1014d800c5c320009542780084cf5200d6003a0058
:1014e80097ff0700e04f500002003a004c2cef0035
:1014f800d1003700c8c32000b4c0b300044c780042
:101508004060800010049800546080002404980013
:10151800c5c02000954278006544980071002000fd
:101528000800780029020700f50f20004802dd00b6
:101538003803900005036300060272003404980023
:101548004803de00c803900004f02f008483630082
:1015580086837300480bdd008582630005037300f2
:101568008602780045049800c80ade0058039000f7
:10157800040263000502720054049800b2002000bf
:101588008800780030608000b60207004c2cef001d
:10159800041020009011800000026200a6003200b2
:1015a80087e0a800a4003700e30f520046003a0085
:1015b800e4c4200014427800e1c42000914078007f
:1015c800c2c32000124178000281fb000482fb00a4
:1015d800040151008180fb00c4c3200084804000c6
:1015e80020608000af0207004e6cb400e4c4200005
:1015f80014427800c5c320009542780084cf520079
:101608008d003a004eff0700e04f500002003a00fc
:101618004c2cef0088003700c8c32000b4c0b300ca
:10162800044c780074608000140498008560800081
:101638002504980012ccbf00604498007100200077
:1016480008007800e1010700f50f20004802dd00de
:101658003803900005036300060272003404980002
:101668004803de00c803900004f02f008483630061
:1016780086837300480bdd008582630005037300d1
:101688008602780045049800c80ade0058039000d6
:10169800040263000502720054049800b20020009e
:1016a80088007800306080006e0207004c2cef0044
:1016b8000410200095118000050262005e003200cf
:1016c80087e0a8005c003700e40f520035003a00bc
:1016d800e4c4200014427800e1c42000914078005e
:1016e800c2c32000124178000281fb000482fb0083
:1016f800040151008180fb00c4c3200084804000a5
:1017080020608000670207004e6cb400e4c420002b
:1017180014427800c5c320009542780084cf520057
:1017280045003a0006ff0700e04f500002003a006b
:101738004c2cef0040003700c8c32000e4c0b300c1
:10174800044c7800a060800010049800b460800009
:1017580024049800c560800035049800d06080009b
:1017680040049800a10020000800780097010700b5
:101778005004980061049800e20020008800780076
:1017880030608000370207004c2cef000410200066
:1017980095118000050262002700320087e0a8004a
:1017a80025003700e50f520022003a00e4c420006b
:1017b80014427800e1c4200091407800c2c32000a0
:1017c800124178000281fb000482fb0004015100f1
:1017d8008180fb00c4c3200084804000206080001a
:1017e800300207004e6cb400e4c4200014427800b4
:1017f800c5c320009542780084cf52000e003a00fd
:10180800cffe0700e04f500002003a004c2cef00da
:1018180009003700c4c3200014009000e06088006d
:101828004440900060ecb70015fe07004c2cef0018
:10183800010037004c2cef004f0478000000060030
:10184800e18f500006003a004200dd0004822800c3
:10185800000042001000be0043fc070008003700eb
:101868004200dd0004822800000042001001be0092
:1018780000002000413b2400ddfb07003afc070084
:10188800cf80de0074fc070000000600140420006e
:10189800c5608000848f52004300360004618000d8
:1018a800e10f52003c003a00a4618000b56180005d
:1018b800a6628000b7628000860f5200878f5a00a8
:1018c80007003500009f2400210020000603400087
:1018d80087834800860f5200878f5a00190034000a
:1018e80014002000a4618800362cef00606180009d
:1018f80071618000e00f5000e08f58000b00340049
:101908000000e900c0618800e90f500004003c00b5
:1019180011002000caff070034fc0700406088005f
:101928002c2cef002e2cef001b0037006103400029
:10193800e08348006661880077618800582cef00d2
:10194800150037008061800091618000e00f500031
:10195800e08f58000b0034000000e900d0618800d7
:10196800e90f500004003c0011002000b4ff0700fc
:101978001efc070070608800302cef00322cef004e
:101988000500370061024000e08248008461880059
:10199800956188005a2cef00202cef00242cef00d2
:1019a800262cef000e00370026618000376180008a
:1019b80061024300e0824b002461880035618800a1
:1019c80007712200870f5200e08f5a00030034008d
:1019d800140020000461880001003700202cef006b
:1019e80014042000b5608000848f52004500360042
:1019f80014618000e10f52003f003a00a4618000aa
:101a0800b5618000a6628000b7628000860f520030
:101a1800878f5a0007003500009f2400210020000e
:101a28000603400087834800860f5200878f5a00bc
:101a38001a00340014002000a4618800362cef003e
:101a48006061800071618000e00f5000e08f5800f5
:101a58000b0034000000e900c0618800e90f500065
:101a680004003c008000eb0075ff0700dffb070067
:101a7800406088002c2cef002e2cef001d00370052
:101a880061034000e0834800666188007761880050
:101a980014002000c46288001600370080618000ae
:101aa80091618000e00f5000e08f58000b00340077
:101ab8000000e900d0618800e90f500004003c00f4
:101ac8008000eb005eff0700c8fb0700706088001d
:101ad800302cef00322cef00060037006102400086
:101ae800e082480084618800956188001400200025
:101af800d4628800222cef00282cef002a2cef005b
:101b08000e00370046618000576180006102430083
:101b1800e0824b004461880055618800077122000b
:101b2800870f5200e08f5a00030034001400200091
:101b38001461880001003700222cef0064618000e6
:101b480075618000e00f5200e08f5a000c003400ed
:101b58008662800097628000860f5200878f5a0045
:101b680003003a002c2cef002e2cef000400370065
:101b780061034200e0834a0066618800776188005b
:101b88008461800095618000e00f5200e08f5a0068
:101b98000c0034008662800097628000860f520035
:101ba800878f5a0003003a00302cef00322cef00e8
:101bb8000400370061034200e0834a008661880020
:101bc80097618800a4618000b5618000e00f520031
:101bd800e08f5a000400340061034200e0834a00a9
:101be800a6618800b76188005c6cef000000060001
:101bf800889fbe008a9fbe000002be006000b80039
:101c0800e04f5100190032008283fb000703e9000e
:101c18008783e9000241e9000281fb000281530049
:101c28001a0020000b002000e103620009003200c6
:101c38000a04be00860378008703e9000300330026
:101c48000804440089844c00fbff3700080070003a
:101c5800898070000603e900820f530003003200f8
:101c68008502d1000482d300efff37004f05be0084
:101c78004f04be0000000600e4874700889fbe00ae
:101c88008a9fbe008c9fbe008e1f780081bf9f0078
:101c98000084eb008084eb0001027800e00f520022
:101ca80020003400000778008005eb008ac0b300ec
:101cb8007cdb21001d4c20003e4078000080fb00aa
:101cc800010020000a417800c9ff07000080fb00de
:101cd8004800dd00cf80de0000046c0081846c00c9
:101ce8000a427800e00f5400e08f5c0005003d00d8
:101cf8000804440089844c000c046c008d846c003a
:101d0800020037000804440089844c000442e900ba
:101d1800f4ff3a008b05e8000fba9700848f55004e
:101d2800e5ff3a0002c2b3000800be00b0ff07009a
:101d38000080ea008180ea004f0778004f06be0065
:101d48004f05be004f04be004f00b1000000060062
:101d5800881f7800001020008003eb0081c0b300ca
:101d680072db2100134c200008802000613ab90082
:101d7800c822dd000400200001437800e00f520073
:101d8800e08f5a0005003d000402420085824a00a7
:101d980002026a0083826a000200370004024200dd
:101da80085824a000643e900f4ff3a00423bdd0021
:101db80006034400048bbe008703e8000000e90026
:101dc800eaff3a004f04780000000600889fbe0032
:101dd8008a9fbe008c9fbe008e1f78008106780007
:101de8000084eb008084eb00e08f5600180034007c
:101df800000678000005eb008bc0b3000e802000c1
:101e08003c4078000080fb00010020000b41780076
:101e180077ff0700484ade000500200000426a00fc
:101e28000482fb004222dd0004024700484bdd002b
:101e3800c843de00870373004843dd0034046b00a9
:101e4800a4846b000a05e8008d0f5500ecff3a00ea
:101e580002c2b3000800be0065ff07000080ea0068
:101e68008180ea004f0778004f06be004f05be008c
:101e78004f04be000000060004e823007408880030
:101e8800440580000400a0000410a1000420a00064
:101e98004405880013e1a8008500a9009500a80062
:101ea8000000060004fe2f00c6368000860262008d
:101eb8005500b300c5368800d102a9003535800029
:101ec800050262009401b30034358800d122a800cd
:101ed80074062000c411880031a2a90030e2a900cc
:101ee80031e2a80033e2a90033a2a900f4f32f00dd
:101ef80026232000160b62003342a80087c0a900e1
:101f080087e0a90097e0a80097c0a8000000060095
:101f18002ce3a9002d43a9002d83a90030e3a800d4
:101f28003143a8003183a800c862a800c9c2a8002c
:101f3800d062a80021a3a900f4cf2f000532200009
:101f4800950a6200000e20002023b7002043a80055
:101f5800f4ff210025322000950a62002343a800df
:101f6800141980000420a1000430a0000440a1003e
:101f78000450a100141988002223a9002203a900f3
:101f880025e3a900f40f2e00251980000502620040
:101f98000480a0002419880014c0b300040078004d
:101fa80024e3b70004fe2f0085322000950a620062
:101fb80028e3a80000072000aa20b70085a0a900f0
:101fc80095a0a80021e3a8002023a800000006008f
:101fd800c042a900c062a900c082a900c0e2a9004d
:101fe800c102a900c142a900c882a900c8a2a900cb
:101ff800c8e2a900c902a900c922a9000000060078
:1020080010000700206088000e000700306088007c
:1020180099ff0700a3ff0700bdff0700ecff0700bb
:10202800c942a90040a7a900f4f32f004574200075
:10203800950a6200f48f2f0045742000950a62000b
:1020480000000600400f200018fb0700e00f5000ba
:10205800030032000002eb0004b8980014b898009e
:1020680000000600e00f51000d0032000002eb00f6
:10207800060f20008003eb0090ba900031f07a0040
:102088008502e80015b89800868f520001003a00d2
:1020980017b898000402e800840f5100f6ff3e00cc
:1020a8000000060080ba900010bb90000002eb0010
:1020b800868f520012003200840f51001000320047
:1020c800070f20008001eb00e0d87a0080ba90006a
:1020d8008502e80005b89800878f520001003a0091
:1020e80003b898000402e80080ba900010bb900082
:1020f800868f520002003200840f5100f2ff3e002a
:10210800044078000000060012002000e5ff0700e8
:0421180000000600bd
:020000040000fa
:10211c005c0c00000400000000000000000c00003b
:10212c002000000000000000600c00000200000015
:10213c0002000000190000003c0c0000140000001c
:10214c000000000000080000000400000000000077
:10215c00200c00001c00000000000000500c0000cf
:10216c000c00000002000000f049020000f04900e1
:10217c000200050000050000620c000010000000c9
:10218c0000000000720c00000200000000000000c3
:04219c00000000003f
:020000040000fa
:1021a00099ff0700ecfe0700c942a90098fc070050
:1021b000c4c5200014427800e04f5200fbff3200fb
:0c21c000b4fd0700f9ff37000000060026
:020000040000fa
:04aff0007fff0000df
:020000040000fa
:04aff800be990000fe
:020000040000fa
:04affc007f3f000093
:00000001FF
